{
  "_format": "hh-sol-artifact-1",
  "contractName": "BTCZMint",
  "sourceName": "contracts/BTCZMint.sol",
  "abi": [
    {
      "anonymous": false,
      "inputs": [
        {
          "indexed": false,
          "internalType": "uint8",
          "name": "version",
          "type": "uint8"
        }
      ],
      "name": "Initialized",
      "type": "event"
    },
    {
      "anonymous": false,
      "inputs": [
        {
          "indexed": true,
          "internalType": "address",
          "name": "previousOwner",
          "type": "address"
        },
        {
          "indexed": true,
          "internalType": "address",
          "name": "newOwner",
          "type": "address"
        }
      ],
      "name": "OwnershipTransferred",
      "type": "event"
    },
    {
      "anonymous": false,
      "inputs": [
        {
          "indexed": false,
          "internalType": "address",
          "name": "account",
          "type": "address"
        }
      ],
      "name": "Paused",
      "type": "event"
    },
    {
      "anonymous": false,
      "inputs": [
        {
          "indexed": false,
          "internalType": "address",
          "name": "account",
          "type": "address"
        }
      ],
      "name": "Unpaused",
      "type": "event"
    },
    {
      "inputs": [
        {
          "internalType": "address",
          "name": "addr",
          "type": "address"
        },
        {
          "internalType": "uint256",
          "name": "num",
          "type": "uint256"
        }
      ],
      "name": "GiveMintNum",
      "outputs": [],
      "stateMutability": "nonpayable",
      "type": "function"
    },
    {
      "inputs": [
        {
          "internalType": "address",
          "name": "target",
          "type": "address"
        },
        {
          "internalType": "uint256",
          "name": "num",
          "type": "uint256"
        }
      ],
      "name": "RoleMintMiners",
      "outputs": [],
      "stateMutability": "nonpayable",
      "type": "function"
    },
    {
      "inputs": [
        {
          "internalType": "address",
          "name": "",
          "type": "address"
        }
      ],
      "name": "Roles",
      "outputs": [
        {
          "internalType": "address",
          "name": "role",
          "type": "address"
        },
        {
          "internalType": "uint256",
          "name": "mintNum",
          "type": "uint256"
        },
        {
          "internalType": "bool",
          "name": "status",
          "type": "bool"
        }
      ],
      "stateMutability": "view",
      "type": "function"
    },
    {
      "inputs": [
        {
          "internalType": "uint256",
          "name": "",
          "type": "uint256"
        }
      ],
      "name": "RolesIndex",
      "outputs": [
        {
          "internalType": "address",
          "name": "",
          "type": "address"
        }
      ],
      "stateMutability": "view",
      "type": "function"
    },
    {
      "inputs": [
        {
          "internalType": "uint256",
          "name": "num",
          "type": "uint256"
        }
      ],
      "name": "SafeMintMiners",
      "outputs": [],
      "stateMutability": "nonpayable",
      "type": "function"
    },
    {
      "inputs": [
        {
          "internalType": "address",
          "name": "addr",
          "type": "address"
        }
      ],
      "name": "banRole",
      "outputs": [],
      "stateMutability": "nonpayable",
      "type": "function"
    },
    {
      "inputs": [
        {
          "internalType": "address",
          "name": "newMinerCoin",
          "type": "address"
        }
      ],
      "name": "changeMinerCoin",
      "outputs": [],
      "stateMutability": "nonpayable",
      "type": "function"
    },
    {
      "inputs": [
        {
          "internalType": "uint256",
          "name": "newPrice",
          "type": "uint256"
        }
      ],
      "name": "changeMinerPrice",
      "outputs": [],
      "stateMutability": "nonpayable",
      "type": "function"
    },
    {
      "inputs": [
        {
          "internalType": "address",
          "name": "newWallet",
          "type": "address"
        }
      ],
      "name": "changeWallet",
      "outputs": [],
      "stateMutability": "nonpayable",
      "type": "function"
    },
    {
      "inputs": [],
      "name": "consumption",
      "outputs": [
        {
          "internalType": "uint256",
          "name": "",
          "type": "uint256"
        }
      ],
      "stateMutability": "view",
      "type": "function"
    },
    {
      "inputs": [],
      "name": "getAllRolesAmount",
      "outputs": [
        {
          "internalType": "uint256",
          "name": "",
          "type": "uint256"
        }
      ],
      "stateMutability": "view",
      "type": "function"
    },
    {
      "inputs": [
        {
          "internalType": "address",
          "name": "addr",
          "type": "address"
        }
      ],
      "name": "getRoleMintNum",
      "outputs": [
        {
          "internalType": "uint256",
          "name": "",
          "type": "uint256"
        }
      ],
      "stateMutability": "view",
      "type": "function"
    },
    {
      "inputs": [
        {
          "internalType": "address",
          "name": "addr",
          "type": "address"
        }
      ],
      "name": "getRoleStatus",
      "outputs": [
        {
          "internalType": "bool",
          "name": "",
          "type": "bool"
        }
      ],
      "stateMutability": "view",
      "type": "function"
    },
    {
      "inputs": [],
      "name": "hashRate",
      "outputs": [
        {
          "internalType": "uint256",
          "name": "",
          "type": "uint256"
        }
      ],
      "stateMutability": "view",
      "type": "function"
    },
    {
      "inputs": [
        {
          "internalType": "address",
          "name": "minerwallet",
          "type": "address"
        },
        {
          "internalType": "address",
          "name": "minerAddr",
          "type": "address"
        },
        {
          "internalType": "address",
          "name": "repoAddr",
          "type": "address"
        },
        {
          "internalType": "address",
          "name": "minerCoinAddr",
          "type": "address"
        }
      ],
      "name": "initialize",
      "outputs": [],
      "stateMutability": "nonpayable",
      "type": "function"
    },
    {
      "inputs": [],
      "name": "miner",
      "outputs": [
        {
          "internalType": "contract IMiner",
          "name": "",
          "type": "address"
        }
      ],
      "stateMutability": "view",
      "type": "function"
    },
    {
      "inputs": [],
      "name": "minerCoin",
      "outputs": [
        {
          "internalType": "contract IERC20",
          "name": "",
          "type": "address"
        }
      ],
      "stateMutability": "view",
      "type": "function"
    },
    {
      "inputs": [],
      "name": "minerPrice",
      "outputs": [
        {
          "internalType": "uint256",
          "name": "",
          "type": "uint256"
        }
      ],
      "stateMutability": "view",
      "type": "function"
    },
    {
      "inputs": [],
      "name": "owner",
      "outputs": [
        {
          "internalType": "address",
          "name": "",
          "type": "address"
        }
      ],
      "stateMutability": "view",
      "type": "function"
    },
    {
      "inputs": [],
      "name": "pause",
      "outputs": [],
      "stateMutability": "nonpayable",
      "type": "function"
    },
    {
      "inputs": [],
      "name": "paused",
      "outputs": [
        {
          "internalType": "bool",
          "name": "",
          "type": "bool"
        }
      ],
      "stateMutability": "view",
      "type": "function"
    },
    {
      "inputs": [
        {
          "internalType": "address",
          "name": "addr",
          "type": "address"
        }
      ],
      "name": "releaseRole",
      "outputs": [],
      "stateMutability": "nonpayable",
      "type": "function"
    },
    {
      "inputs": [],
      "name": "renounceOwnership",
      "outputs": [],
      "stateMutability": "nonpayable",
      "type": "function"
    },
    {
      "inputs": [],
      "name": "repository",
      "outputs": [
        {
          "internalType": "contract IRepostory",
          "name": "",
          "type": "address"
        }
      ],
      "stateMutability": "view",
      "type": "function"
    },
    {
      "inputs": [
        {
          "internalType": "uint256",
          "name": "newConsumption",
          "type": "uint256"
        }
      ],
      "name": "setConsumption",
      "outputs": [],
      "stateMutability": "nonpayable",
      "type": "function"
    },
    {
      "inputs": [
        {
          "internalType": "uint256",
          "name": "newHashRate",
          "type": "uint256"
        }
      ],
      "name": "setHashRate",
      "outputs": [],
      "stateMutability": "nonpayable",
      "type": "function"
    },
    {
      "inputs": [],
      "name": "totalMinted",
      "outputs": [
        {
          "internalType": "uint256",
          "name": "",
          "type": "uint256"
        }
      ],
      "stateMutability": "view",
      "type": "function"
    },
    {
      "inputs": [
        {
          "internalType": "address",
          "name": "newOwner",
          "type": "address"
        }
      ],
      "name": "transferOwnership",
      "outputs": [],
      "stateMutability": "nonpayable",
      "type": "function"
    },
    {
      "inputs": [],
      "name": "unpause",
      "outputs": [],
      "stateMutability": "nonpayable",
      "type": "function"
    }
  ],
  "bytecode": "0x608060405234801561001057600080fd5b50613218806100206000396000f3fe608060405234801561001057600080fd5b50600436106101cf5760003560e01c8063752ae97311610104578063c4865dcc116100a2578063f2acb6e911610071578063f2acb6e9146104be578063f2fde38b146104da578063f8c8765e146104f6578063fb1a47e714610512576101cf565b8063c4865dcc14610436578063cb7d603914610454578063cf889beb14610470578063e9176c60146104a0576101cf565b80638da5cb5b116100de5780638da5cb5b146103c057806395356f9d146103de57806398b9a2dc146103fc578063a2309ff814610418576101cf565b8063752ae9731461036a5780638456cb59146103865780638a2f6f9414610390576101cf565b806339a1423e116101715780635a77da5f1161014b5780635a77da5f1461030a5780635c975abb146103265780636ae0113414610344578063715018a614610360576101cf565b806339a1423e146102c85780633f4ba83a146102e45780635a500ecc146102ee576101cf565b8063283d78cd116101ad578063283d78cd1461022a57806331023bc314610248578063349dc3291461027857806335e8acfb14610296576101cf565b8063084b4917146101d4578063109cfa8f146101f0578063115a06f41461020c575b600080fd5b6101ee60048036038101906101e99190612682565b610530565b005b61020a60048036038101906102059190612773565b610660565b005b6102146106e6565b6040516102219190612ca4565b60405180910390f35b6102326106f3565b60405161023f9190612ca4565b60405180910390f35b610262600480360381019061025d9190612773565b6106f9565b60405161026f9190612a34565b60405180910390f35b610280610738565b60405161028d9190612af3565b60405180910390f35b6102b060048036038101906102ab9190612682565b61075e565b6040516102bf93929190612a86565b60405180910390f35b6102e260048036038101906102dd9190612682565b6107b5565b005b6102ec6109cd565b005b61030860048036038101906103039190612773565b610a53565b005b610324600480360381019061031f919061270e565b610ad9565b005b61032e610d85565b60405161033b9190612abd565b60405180910390f35b61035e60048036038101906103599190612682565b610d9c565b005b610368610fb4565b005b610384600480360381019061037f919061270e565b61103c565b005b61038e611402565b005b6103aa60048036038101906103a59190612682565b611488565b6040516103b79190612abd565b60405180910390f35b6103c861155f565b6040516103d59190612a34565b60405180910390f35b6103e6611589565b6040516103f39190612ad8565b60405180910390f35b61041660048036038101906104119190612682565b6115af565b005b61042061166f565b60405161042d9190612ca4565b60405180910390f35b61043e611675565b60405161044b9190612ca4565b60405180910390f35b61046e60048036038101906104699190612773565b61167b565b005b61048a60048036038101906104859190612682565b611715565b6040516104979190612ca4565b60405180910390f35b6104a86117ec565b6040516104b59190612b0e565b60405180910390f35b6104d860048036038101906104d39190612773565b611812565b005b6104f460048036038101906104ef9190612682565b611bcc565b005b610510600480360381019061050b91906126ab565b611cc4565b005b61051a611e97565b6040516105279190612ca4565b60405180910390f35b610538611e9d565b73ffffffffffffffffffffffffffffffffffffffff1661055661155f565b73ffffffffffffffffffffffffffffffffffffffff16146105ac576040517f08c379a00000000000000000000000000000000000000000000000000000000081526004016105a390612c04565b60405180910390fd5b600073ffffffffffffffffffffffffffffffffffffffff168173ffffffffffffffffffffffffffffffffffffffff16141561061c576040517f08c379a000000000000000000000000000000000000000000000000000000000815260040161061390612b44565b60405180910390fd5b80609960006101000a81548173ffffffffffffffffffffffffffffffffffffffff021916908373ffffffffffffffffffffffffffffffffffffffff16021790555050565b610668611e9d565b73ffffffffffffffffffffffffffffffffffffffff1661068661155f565b73ffffffffffffffffffffffffffffffffffffffff16146106dc576040517f08c379a00000000000000000000000000000000000000000000000000000000081526004016106d390612c04565b60405180910390fd5b80609d8190555050565b600060a180549050905090565b609d5481565b60a1818154811061070957600080fd5b906000526020600020016000915054906101000a900473ffffffffffffffffffffffffffffffffffffffff1681565b609760009054906101000a900473ffffffffffffffffffffffffffffffffffffffff1681565b60a06020528060005260406000206000915090508060000160009054906101000a900473ffffffffffffffffffffffffffffffffffffffff16908060010154908060020160009054906101000a900460ff16905083565b6107bd611e9d565b73ffffffffffffffffffffffffffffffffffffffff166107db61155f565b73ffffffffffffffffffffffffffffffffffffffff1614610831576040517f08c379a000000000000000000000000000000000000000000000000000000000815260040161082890612c04565b60405180910390fd5b600060a060008373ffffffffffffffffffffffffffffffffffffffff1673ffffffffffffffffffffffffffffffffffffffff1681526020019081526020016000206040518060600160405290816000820160009054906101000a900473ffffffffffffffffffffffffffffffffffffffff1673ffffffffffffffffffffffffffffffffffffffff1673ffffffffffffffffffffffffffffffffffffffff168152602001600182015481526020016002820160009054906101000a900460ff1615151515815250509050600073ffffffffffffffffffffffffffffffffffffffff16816000015173ffffffffffffffffffffffffffffffffffffffff16141561096e576040517f08c379a000000000000000000000000000000000000000000000000000000000815260040161096590612c44565b60405180910390fd5b600060a060008473ffffffffffffffffffffffffffffffffffffffff1673ffffffffffffffffffffffffffffffffffffffff16815260200190815260200160002060020160006101000a81548160ff0219169083151502179055505050565b6109d5611e9d565b73ffffffffffffffffffffffffffffffffffffffff166109f361155f565b73ffffffffffffffffffffffffffffffffffffffff1614610a49576040517f08c379a0000000000000000000000000000000000000000000000000000000008152600401610a4090612c04565b60405180910390fd5b610a51611ea5565b565b610a5b611e9d565b73ffffffffffffffffffffffffffffffffffffffff16610a7961155f565b73ffffffffffffffffffffffffffffffffffffffff1614610acf576040517f08c379a0000000000000000000000000000000000000000000000000000000008152600401610ac690612c04565b60405180910390fd5b80609e8190555050565b610ae1611e9d565b73ffffffffffffffffffffffffffffffffffffffff16610aff61155f565b73ffffffffffffffffffffffffffffffffffffffff1614610b55576040517f08c379a0000000000000000000000000000000000000000000000000000000008152600401610b4c90612c04565b60405180910390fd5b600060a060008473ffffffffffffffffffffffffffffffffffffffff1673ffffffffffffffffffffffffffffffffffffffff1681526020019081526020016000206040518060600160405290816000820160009054906101000a900473ffffffffffffffffffffffffffffffffffffffff1673ffffffffffffffffffffffffffffffffffffffff1673ffffffffffffffffffffffffffffffffffffffff168152602001600182015481526020016002820160009054906101000a900460ff1615151515815250509050600073ffffffffffffffffffffffffffffffffffffffff16816000015173ffffffffffffffffffffffffffffffffffffffff161415610c6757610c618383611f47565b50610d81565b8060400151610cab576040517f08c379a0000000000000000000000000000000000000000000000000000000008152600401610ca290612c84565b60405180910390fd5b610cc282826020015161209b90919063ffffffff16565b8160200181815250508060a060008573ffffffffffffffffffffffffffffffffffffffff1673ffffffffffffffffffffffffffffffffffffffff16815260200190815260200160002060008201518160000160006101000a81548173ffffffffffffffffffffffffffffffffffffffff021916908373ffffffffffffffffffffffffffffffffffffffff1602179055506020820151816001015560408201518160020160006101000a81548160ff021916908315150217905550905050505b5050565b6000606560009054906101000a900460ff16905090565b610da4611e9d565b73ffffffffffffffffffffffffffffffffffffffff16610dc261155f565b73ffffffffffffffffffffffffffffffffffffffff1614610e18576040517f08c379a0000000000000000000000000000000000000000000000000000000008152600401610e0f90612c04565b60405180910390fd5b600060a060008373ffffffffffffffffffffffffffffffffffffffff1673ffffffffffffffffffffffffffffffffffffffff1681526020019081526020016000206040518060600160405290816000820160009054906101000a900473ffffffffffffffffffffffffffffffffffffffff1673ffffffffffffffffffffffffffffffffffffffff1673ffffffffffffffffffffffffffffffffffffffff168152602001600182015481526020016002820160009054906101000a900460ff1615151515815250509050600073ffffffffffffffffffffffffffffffffffffffff16816000015173ffffffffffffffffffffffffffffffffffffffff161415610f55576040517f08c379a0000000000000000000000000000000000000000000000000000000008152600401610f4c90612c44565b60405180910390fd5b600160a060008473ffffffffffffffffffffffffffffffffffffffff1673ffffffffffffffffffffffffffffffffffffffff16815260200190815260200160002060020160006101000a81548160ff0219169083151502179055505050565b610fbc611e9d565b73ffffffffffffffffffffffffffffffffffffffff16610fda61155f565b73ffffffffffffffffffffffffffffffffffffffff1614611030576040517f08c379a000000000000000000000000000000000000000000000000000000000815260040161102790612c04565b60405180910390fd5b61103a60006120b1565b565b611044610d85565b15611084576040517f08c379a000000000000000000000000000000000000000000000000000000000815260040161107b90612bc4565b60405180910390fd5b600060a060003373ffffffffffffffffffffffffffffffffffffffff1673ffffffffffffffffffffffffffffffffffffffff1681526020019081526020016000206040518060600160405290816000820160009054906101000a900473ffffffffffffffffffffffffffffffffffffffff1673ffffffffffffffffffffffffffffffffffffffff1673ffffffffffffffffffffffffffffffffffffffff168152602001600182015481526020016002820160009054906101000a900460ff161515151581525050905080604001518015611162575081816020015110155b6111a1576040517f08c379a000000000000000000000000000000000000000000000000000000000815260040161119890612b84565b60405180910390fd5b60006111ab612177565b905060005b8381101561130c576000609760009054906101000a900473ffffffffffffffffffffffffffffffffffffffff1673ffffffffffffffffffffffffffffffffffffffff16636a627842876040518263ffffffff1660e01b81526004016112159190612a34565b602060405180830381600087803b15801561122f57600080fd5b505af1158015611243573d6000803e3d6000fd5b505050506040513d601f19601f82011682018060405250810190611267919061279c565b9050609860009054906101000a900473ffffffffffffffffffffffffffffffffffffffff1673ffffffffffffffffffffffffffffffffffffffff166391d4e28882856040518363ffffffff1660e01b81526004016112c6929190612cbf565b600060405180830381600087803b1580156112e057600080fd5b505af11580156112f4573d6000803e3d6000fd5b5050505050808061130490612ef0565b9150506111b0565b506113248383602001516122cd90919063ffffffff16565b8260200181815250508160a060003373ffffffffffffffffffffffffffffffffffffffff1673ffffffffffffffffffffffffffffffffffffffff16815260200190815260200160002060008201518160000160006101000a81548173ffffffffffffffffffffffffffffffffffffffff021916908373ffffffffffffffffffffffffffffffffffffffff1602179055506020820151816001015560408201518160020160006101000a81548160ff0219169083151502179055509050506113f683609f5461209b90919063ffffffff16565b609f8190555050505050565b61140a611e9d565b73ffffffffffffffffffffffffffffffffffffffff1661142861155f565b73ffffffffffffffffffffffffffffffffffffffff161461147e576040517f08c379a000000000000000000000000000000000000000000000000000000000815260040161147590612c04565b60405180910390fd5b6114866122e3565b565b60008060a060008473ffffffffffffffffffffffffffffffffffffffff1673ffffffffffffffffffffffffffffffffffffffff1681526020019081526020016000206040518060600160405290816000820160009054906101000a900473ffffffffffffffffffffffffffffffffffffffff1673ffffffffffffffffffffffffffffffffffffffff1673ffffffffffffffffffffffffffffffffffffffff168152602001600182015481526020016002820160009054906101000a900460ff16151515158152505090508060400151915050919050565b6000603360009054906101000a900473ffffffffffffffffffffffffffffffffffffffff16905090565b609960009054906101000a900473ffffffffffffffffffffffffffffffffffffffff1681565b6115b7611e9d565b73ffffffffffffffffffffffffffffffffffffffff166115d561155f565b73ffffffffffffffffffffffffffffffffffffffff161461162b576040517f08c379a000000000000000000000000000000000000000000000000000000000815260040161162290612c04565b60405180910390fd5b80609a60006101000a81548173ffffffffffffffffffffffffffffffffffffffff021916908373ffffffffffffffffffffffffffffffffffffffff16021790555050565b609f5481565b609e5481565b611683611e9d565b73ffffffffffffffffffffffffffffffffffffffff166116a161155f565b73ffffffffffffffffffffffffffffffffffffffff16146116f7576040517f08c379a00000000000000000000000000000000000000000000000000000000081526004016116ee90612c04565b60405180910390fd5b61170c609c548261238690919063ffffffff16565b609b8190555050565b60008060a060008473ffffffffffffffffffffffffffffffffffffffff1673ffffffffffffffffffffffffffffffffffffffff1681526020019081526020016000206040518060600160405290816000820160009054906101000a900473ffffffffffffffffffffffffffffffffffffffff1673ffffffffffffffffffffffffffffffffffffffff1673ffffffffffffffffffffffffffffffffffffffff168152602001600182015481526020016002820160009054906101000a900460ff16151515158152505090508060200151915050919050565b609860009054906101000a900473ffffffffffffffffffffffffffffffffffffffff1681565b61181a610d85565b1561185a576040517f08c379a000000000000000000000000000000000000000000000000000000000815260040161185190612bc4565b60405180910390fd5b60003390506000609960009054906101000a900473ffffffffffffffffffffffffffffffffffffffff1673ffffffffffffffffffffffffffffffffffffffff166370a08231836040518263ffffffff1660e01b81526004016118bc9190612a34565b60206040518083038186803b1580156118d457600080fd5b505afa1580156118e8573d6000803e3d6000fd5b505050506040513d601f19601f8201168201806040525081019061190c919061279c565b90506000611925609b548561238690919063ffffffff16565b90508082101561196a576040517f08c379a000000000000000000000000000000000000000000000000000000000815260040161196190612c24565b60405180910390fd5b6000611974612177565b905060005b85811015611ad5576000609760009054906101000a900473ffffffffffffffffffffffffffffffffffffffff1673ffffffffffffffffffffffffffffffffffffffff16636a627842876040518263ffffffff1660e01b81526004016119de9190612a34565b602060405180830381600087803b1580156119f857600080fd5b505af1158015611a0c573d6000803e3d6000fd5b505050506040513d601f19601f82011682018060405250810190611a30919061279c565b9050609860009054906101000a900473ffffffffffffffffffffffffffffffffffffffff1673ffffffffffffffffffffffffffffffffffffffff166391d4e28882856040518363ffffffff1660e01b8152600401611a8f929190612cbf565b600060405180830381600087803b158015611aa957600080fd5b505af1158015611abd573d6000803e3d6000fd5b50505050508080611acd90612ef0565b915050611979565b50609960009054906101000a900473ffffffffffffffffffffffffffffffffffffffff1673ffffffffffffffffffffffffffffffffffffffff166323b872dd85609a60009054906101000a900473ffffffffffffffffffffffffffffffffffffffff16856040518463ffffffff1660e01b8152600401611b5793929190612a4f565b602060405180830381600087803b158015611b7157600080fd5b505af1158015611b85573d6000803e3d6000fd5b505050506040513d601f19601f82011682018060405250810190611ba9919061274a565b50611bbf85609f5461209b90919063ffffffff16565b609f819055505050505050565b611bd4611e9d565b73ffffffffffffffffffffffffffffffffffffffff16611bf261155f565b73ffffffffffffffffffffffffffffffffffffffff1614611c48576040517f08c379a0000000000000000000000000000000000000000000000000000000008152600401611c3f90612c04565b60405180910390fd5b600073ffffffffffffffffffffffffffffffffffffffff168173ffffffffffffffffffffffffffffffffffffffff161415611cb8576040517f08c379a0000000000000000000000000000000000000000000000000000000008152600401611caf90612ba4565b60405180910390fd5b611cc1816120b1565b50565b6000611cd0600161239c565b90508015611cf4576001600060016101000a81548160ff0219169083151502179055505b84609a60006101000a81548173ffffffffffffffffffffffffffffffffffffffff021916908373ffffffffffffffffffffffffffffffffffffffff16021790555083609760006101000a81548173ffffffffffffffffffffffffffffffffffffffff021916908373ffffffffffffffffffffffffffffffffffffffff16021790555082609860006101000a81548173ffffffffffffffffffffffffffffffffffffffff021916908373ffffffffffffffffffffffffffffffffffffffff16021790555081609960006101000a81548173ffffffffffffffffffffffffffffffffffffffff021916908373ffffffffffffffffffffffffffffffffffffffff1602179055506103e8609d81905550600a609e81905550670de0b6b3a7640000609c81905550670de0b6b3a7640000609b81905550611e2f61248c565b611e376124e5565b8015611e905760008060016101000a81548160ff0219169083151502179055507f7f26b83ff96e1f2b6a682f133852f6798a09c465da95921460cefb38474024986001604051611e879190612b29565b60405180910390a15b5050505050565b609b5481565b600033905090565b611ead610d85565b611eec576040517f08c379a0000000000000000000000000000000000000000000000000000000008152600401611ee390612b64565b60405180910390fd5b6000606560006101000a81548160ff0219169083151502179055507f5db9ee0a495bf2e6ff9c91a7834c1ba4fdd244a5e8aa4e537bd38aeae4b073aa611f30611e9d565b604051611f3d9190612a34565b60405180910390a1565b600060405180606001604052808473ffffffffffffffffffffffffffffffffffffffff1681526020018381526020016001151581525090508060a060008573ffffffffffffffffffffffffffffffffffffffff1673ffffffffffffffffffffffffffffffffffffffff16815260200190815260200160002060008201518160000160006101000a81548173ffffffffffffffffffffffffffffffffffffffff021916908373ffffffffffffffffffffffffffffffffffffffff1602179055506020820151816001015560408201518160020160006101000a81548160ff02191690831515021790555090505060a1839080600181540180825580915050600190039060005260206000200160009091909190916101000a81548173ffffffffffffffffffffffffffffffffffffffff021916908373ffffffffffffffffffffffffffffffffffffffff160217905550505050565b600081836120a99190612d39565b905092915050565b6000603360009054906101000a900473ffffffffffffffffffffffffffffffffffffffff16905081603360006101000a81548173ffffffffffffffffffffffffffffffffffffffff021916908373ffffffffffffffffffffffffffffffffffffffff1602179055508173ffffffffffffffffffffffffffffffffffffffff168173ffffffffffffffffffffffffffffffffffffffff167f8be0079c531659141344cd1fd0a4f28419497f9722a3daafe3b4186f6b6457e060405160405180910390a35050565b60606000600367ffffffffffffffff8111156121bc577f4e487b7100000000000000000000000000000000000000000000000000000000600052604160045260246000fd5b6040519080825280602002602001820160405280156121ea5781602001602082028036833780820191505090505b509050609d548160008151811061222a577f4e487b7100000000000000000000000000000000000000000000000000000000600052603260045260246000fd5b602002602001018181525050609e5481600181518110612273577f4e487b7100000000000000000000000000000000000000000000000000000000600052603260045260246000fd5b60200260200101818152505042816002815181106122ba577f4e487b7100000000000000000000000000000000000000000000000000000000600052603260045260246000fd5b6020026020010181815250508091505090565b600081836122db9190612de9565b905092915050565b6122eb610d85565b1561232b576040517f08c379a000000000000000000000000000000000000000000000000000000000815260040161232290612bc4565b60405180910390fd5b6001606560006101000a81548160ff0219169083151502179055507f62e78cea01bee320cd4e420270b5ea74000d11b0c9f74754ebdbfc544b05a25861236f611e9d565b60405161237c9190612a34565b60405180910390a1565b600081836123949190612d8f565b905092915050565b60008060019054906101000a900460ff16156124135760018260ff161480156123cb57506123c93061253e565b155b61240a576040517f08c379a000000000000000000000000000000000000000000000000000000000815260040161240190612be4565b60405180910390fd5b60009050612487565b8160ff1660008054906101000a900460ff1660ff1610612468576040517f08c379a000000000000000000000000000000000000000000000000000000000815260040161245f90612be4565b60405180910390fd5b816000806101000a81548160ff021916908360ff160217905550600190505b919050565b600060019054906101000a900460ff166124db576040517f08c379a00000000000000000000000000000000000000000000000000000000081526004016124d290612c64565b60405180910390fd5b6124e3612561565b565b600060019054906101000a900460ff16612534576040517f08c379a000000000000000000000000000000000000000000000000000000000815260040161252b90612c64565b60405180910390fd5b61253c6125c2565b565b6000808273ffffffffffffffffffffffffffffffffffffffff163b119050919050565b600060019054906101000a900460ff166125b0576040517f08c379a00000000000000000000000000000000000000000000000000000000081526004016125a790612c64565b60405180910390fd5b6125c06125bb611e9d565b6120b1565b565b600060019054906101000a900460ff16612611576040517f08c379a000000000000000000000000000000000000000000000000000000000815260040161260890612c64565b60405180910390fd5b6000606560006101000a81548160ff021916908315150217905550565b60008135905061263d8161319d565b92915050565b600081519050612652816131b4565b92915050565b600081359050612667816131cb565b92915050565b60008151905061267c816131cb565b92915050565b60006020828403121561269457600080fd5b60006126a28482850161262e565b91505092915050565b600080600080608085870312156126c157600080fd5b60006126cf8782880161262e565b94505060206126e08782880161262e565b93505060406126f18782880161262e565b92505060606127028782880161262e565b91505092959194509250565b6000806040838503121561272157600080fd5b600061272f8582860161262e565b925050602061274085828601612658565b9150509250929050565b60006020828403121561275c57600080fd5b600061276a84828501612643565b91505092915050565b60006020828403121561278557600080fd5b600061279384828501612658565b91505092915050565b6000602082840312156127ae57600080fd5b60006127bc8482850161266d565b91505092915050565b60006127d18383612a16565b60208301905092915050565b6127e681612e1d565b82525050565b60006127f782612cff565b6128018185612d17565b935061280c83612cef565b8060005b8381101561283d57815161282488826127c5565b975061282f83612d0a565b925050600181019050612810565b5085935050505092915050565b61285381612e2f565b82525050565b61286281612e72565b82525050565b61287181612e96565b82525050565b61288081612eba565b82525050565b61288f81612ede565b82525050565b60006128a2601c83612d28565b91506128ad82612f68565b602082019050919050565b60006128c5601483612d28565b91506128d082612f91565b602082019050919050565b60006128e8600a83612d28565b91506128f382612fba565b602082019050919050565b600061290b602683612d28565b915061291682612fe3565b604082019050919050565b600061292e601083612d28565b915061293982613032565b602082019050919050565b6000612951602e83612d28565b915061295c8261305b565b604082019050919050565b6000612974602083612d28565b915061297f826130aa565b602082019050919050565b6000612997601d83612d28565b91506129a2826130d3565b602082019050919050565b60006129ba600c83612d28565b91506129c5826130fc565b602082019050919050565b60006129dd602b83612d28565b91506129e882613125565b604082019050919050565b6000612a00601783612d28565b9150612a0b82613174565b602082019050919050565b612a1f81612e5b565b82525050565b612a2e81612e5b565b82525050565b6000602082019050612a4960008301846127dd565b92915050565b6000606082019050612a6460008301866127dd565b612a7160208301856127dd565b612a7e6040830184612a25565b949350505050565b6000606082019050612a9b60008301866127dd565b612aa86020830185612a25565b612ab5604083018461284a565b949350505050565b6000602082019050612ad2600083018461284a565b92915050565b6000602082019050612aed6000830184612859565b92915050565b6000602082019050612b086000830184612868565b92915050565b6000602082019050612b236000830184612877565b92915050565b6000602082019050612b3e6000830184612886565b92915050565b60006020820190508181036000830152612b5d81612895565b9050919050565b60006020820190508181036000830152612b7d816128b8565b9050919050565b60006020820190508181036000830152612b9d816128db565b9050919050565b60006020820190508181036000830152612bbd816128fe565b9050919050565b60006020820190508181036000830152612bdd81612921565b9050919050565b60006020820190508181036000830152612bfd81612944565b9050919050565b60006020820190508181036000830152612c1d81612967565b9050919050565b60006020820190508181036000830152612c3d8161298a565b9050919050565b60006020820190508181036000830152612c5d816129ad565b9050919050565b60006020820190508181036000830152612c7d816129d0565b9050919050565b60006020820190508181036000830152612c9d816129f3565b9050919050565b6000602082019050612cb96000830184612a25565b92915050565b6000604082019050612cd46000830185612a25565b8181036020830152612ce681846127ec565b90509392505050565b6000819050602082019050919050565b600081519050919050565b6000602082019050919050565b600082825260208201905092915050565b600082825260208201905092915050565b6000612d4482612e5b565b9150612d4f83612e5b565b9250827fffffffffffffffffffffffffffffffffffffffffffffffffffffffffffffffff03821115612d8457612d83612f39565b5b828201905092915050565b6000612d9a82612e5b565b9150612da583612e5b565b9250817fffffffffffffffffffffffffffffffffffffffffffffffffffffffffffffffff0483118215151615612dde57612ddd612f39565b5b828202905092915050565b6000612df482612e5b565b9150612dff83612e5b565b925082821015612e1257612e11612f39565b5b828203905092915050565b6000612e2882612e3b565b9050919050565b60008115159050919050565b600073ffffffffffffffffffffffffffffffffffffffff82169050919050565b6000819050919050565b600060ff82169050919050565b6000612e7d82612e84565b9050919050565b6000612e8f82612e3b565b9050919050565b6000612ea182612ea8565b9050919050565b6000612eb382612e3b565b9050919050565b6000612ec582612ecc565b9050919050565b6000612ed782612e3b565b9050919050565b6000612ee982612e65565b9050919050565b6000612efb82612e5b565b91507fffffffffffffffffffffffffffffffffffffffffffffffffffffffffffffffff821415612f2e57612f2d612f39565b5b600182019050919050565b7f4e487b7100000000000000000000000000000000000000000000000000000000600052601160045260246000fd5b7f6d696e657220636f696e20616464726573732063616e74206265203000000000600082015250565b7f5061757361626c653a206e6f7420706175736564000000000000000000000000600082015250565b7f4d696e74206572726f7200000000000000000000000000000000000000000000600082015250565b7f4f776e61626c653a206e6577206f776e657220697320746865207a65726f206160008201527f6464726573730000000000000000000000000000000000000000000000000000602082015250565b7f5061757361626c653a2070617573656400000000000000000000000000000000600082015250565b7f496e697469616c697a61626c653a20636f6e747261637420697320616c72656160008201527f647920696e697469616c697a6564000000000000000000000000000000000000602082015250565b7f4f776e61626c653a2063616c6c6572206973206e6f7420746865206f776e6572600082015250565b7f496e73756666696369656e74206d696e6572546f6b656e2066756e6473000000600082015250565b7f526f6c65206e6f74205365740000000000000000000000000000000000000000600082015250565b7f496e697469616c697a61626c653a20636f6e7472616374206973206e6f74206960008201527f6e697469616c697a696e67000000000000000000000000000000000000000000602082015250565b7f6164647265737320686173206265656e2062616e6e6564000000000000000000600082015250565b6131a681612e1d565b81146131b157600080fd5b50565b6131bd81612e2f565b81146131c857600080fd5b50565b6131d481612e5b565b81146131df57600080fd5b5056fea2646970667358221220e87b7d0d088c652a246025d96328023c358e803ad768987adceef23a74cd275b64736f6c63430008030033",
  "linkReferences": {},
  "deployedLinkReferences": {}
}