{
  "_format": "hh-sol-artifact-1",
  "contractName": "NFTMiner",
  "sourceName": "contracts/nft/NFTMiner.sol",
  "abi": [
    {
      "inputs": [],
      "stateMutability": "nonpayable",
      "type": "constructor"
    },
    {
      "anonymous": false,
      "inputs": [
        {
          "indexed": false,
          "internalType": "address",
          "name": "manage",
          "type": "address"
        }
      ],
      "name": "AddManage",
      "type": "event"
    },
    {
      "anonymous": false,
      "inputs": [
        {
          "indexed": true,
          "internalType": "address",
          "name": "owner",
          "type": "address"
        },
        {
          "indexed": true,
          "internalType": "address",
          "name": "approved",
          "type": "address"
        },
        {
          "indexed": true,
          "internalType": "uint256",
          "name": "tokenId",
          "type": "uint256"
        }
      ],
      "name": "Approval",
      "type": "event"
    },
    {
      "anonymous": false,
      "inputs": [
        {
          "indexed": true,
          "internalType": "address",
          "name": "owner",
          "type": "address"
        },
        {
          "indexed": true,
          "internalType": "address",
          "name": "operator",
          "type": "address"
        },
        {
          "indexed": false,
          "internalType": "bool",
          "name": "approved",
          "type": "bool"
        }
      ],
      "name": "ApprovalForAll",
      "type": "event"
    },
    {
      "anonymous": false,
      "inputs": [
        {
          "indexed": true,
          "internalType": "address",
          "name": "previousOwner",
          "type": "address"
        },
        {
          "indexed": true,
          "internalType": "address",
          "name": "newOwner",
          "type": "address"
        }
      ],
      "name": "OwnershipTransferred",
      "type": "event"
    },
    {
      "anonymous": false,
      "inputs": [
        {
          "indexed": false,
          "internalType": "address",
          "name": "account",
          "type": "address"
        }
      ],
      "name": "Paused",
      "type": "event"
    },
    {
      "anonymous": false,
      "inputs": [
        {
          "indexed": false,
          "internalType": "address",
          "name": "manage",
          "type": "address"
        }
      ],
      "name": "RemoveManage",
      "type": "event"
    },
    {
      "anonymous": false,
      "inputs": [
        {
          "indexed": true,
          "internalType": "string",
          "name": "baseURI",
          "type": "string"
        },
        {
          "indexed": false,
          "internalType": "address",
          "name": "_owner",
          "type": "address"
        }
      ],
      "name": "SetBaseURI",
      "type": "event"
    },
    {
      "anonymous": false,
      "inputs": [
        {
          "indexed": false,
          "internalType": "address",
          "name": "_owner",
          "type": "address"
        }
      ],
      "name": "SetPause",
      "type": "event"
    },
    {
      "anonymous": false,
      "inputs": [
        {
          "indexed": false,
          "internalType": "address",
          "name": "_owner",
          "type": "address"
        }
      ],
      "name": "SetUnPause",
      "type": "event"
    },
    {
      "anonymous": false,
      "inputs": [
        {
          "indexed": true,
          "internalType": "address",
          "name": "from",
          "type": "address"
        },
        {
          "indexed": true,
          "internalType": "address",
          "name": "to",
          "type": "address"
        },
        {
          "indexed": true,
          "internalType": "uint256",
          "name": "tokenId",
          "type": "uint256"
        }
      ],
      "name": "Transfer",
      "type": "event"
    },
    {
      "anonymous": false,
      "inputs": [
        {
          "indexed": false,
          "internalType": "address",
          "name": "account",
          "type": "address"
        }
      ],
      "name": "Unpaused",
      "type": "event"
    },
    {
      "inputs": [
        {
          "internalType": "address",
          "name": "_manage",
          "type": "address"
        }
      ],
      "name": "addManage",
      "outputs": [],
      "stateMutability": "nonpayable",
      "type": "function"
    },
    {
      "inputs": [
        {
          "internalType": "address",
          "name": "to",
          "type": "address"
        },
        {
          "internalType": "uint256",
          "name": "tokenId",
          "type": "uint256"
        }
      ],
      "name": "approve",
      "outputs": [],
      "stateMutability": "nonpayable",
      "type": "function"
    },
    {
      "inputs": [
        {
          "internalType": "address",
          "name": "owner",
          "type": "address"
        }
      ],
      "name": "balanceOf",
      "outputs": [
        {
          "internalType": "uint256",
          "name": "",
          "type": "uint256"
        }
      ],
      "stateMutability": "view",
      "type": "function"
    },
    {
      "inputs": [],
      "name": "baseURI",
      "outputs": [
        {
          "internalType": "string",
          "name": "",
          "type": "string"
        }
      ],
      "stateMutability": "view",
      "type": "function"
    },
    {
      "inputs": [
        {
          "internalType": "uint256",
          "name": "tokenId",
          "type": "uint256"
        }
      ],
      "name": "burn",
      "outputs": [],
      "stateMutability": "nonpayable",
      "type": "function"
    },
    {
      "inputs": [
        {
          "internalType": "uint256",
          "name": "tokenId",
          "type": "uint256"
        }
      ],
      "name": "getApproved",
      "outputs": [
        {
          "internalType": "address",
          "name": "",
          "type": "address"
        }
      ],
      "stateMutability": "view",
      "type": "function"
    },
    {
      "inputs": [
        {
          "internalType": "address",
          "name": "owner",
          "type": "address"
        },
        {
          "internalType": "address",
          "name": "operator",
          "type": "address"
        }
      ],
      "name": "isApprovedForAll",
      "outputs": [
        {
          "internalType": "bool",
          "name": "",
          "type": "bool"
        }
      ],
      "stateMutability": "view",
      "type": "function"
    },
    {
      "inputs": [
        {
          "internalType": "address",
          "name": "",
          "type": "address"
        }
      ],
      "name": "manage",
      "outputs": [
        {
          "internalType": "bool",
          "name": "",
          "type": "bool"
        }
      ],
      "stateMutability": "view",
      "type": "function"
    },
    {
      "inputs": [
        {
          "internalType": "address",
          "name": "player",
          "type": "address"
        }
      ],
      "name": "mint",
      "outputs": [
        {
          "internalType": "uint256",
          "name": "",
          "type": "uint256"
        }
      ],
      "stateMutability": "nonpayable",
      "type": "function"
    },
    {
      "inputs": [],
      "name": "name",
      "outputs": [
        {
          "internalType": "string",
          "name": "",
          "type": "string"
        }
      ],
      "stateMutability": "view",
      "type": "function"
    },
    {
      "inputs": [],
      "name": "owner",
      "outputs": [
        {
          "internalType": "address",
          "name": "",
          "type": "address"
        }
      ],
      "stateMutability": "view",
      "type": "function"
    },
    {
      "inputs": [
        {
          "internalType": "uint256",
          "name": "tokenId",
          "type": "uint256"
        }
      ],
      "name": "ownerOf",
      "outputs": [
        {
          "internalType": "address",
          "name": "",
          "type": "address"
        }
      ],
      "stateMutability": "view",
      "type": "function"
    },
    {
      "inputs": [],
      "name": "pause",
      "outputs": [],
      "stateMutability": "nonpayable",
      "type": "function"
    },
    {
      "inputs": [],
      "name": "paused",
      "outputs": [
        {
          "internalType": "bool",
          "name": "",
          "type": "bool"
        }
      ],
      "stateMutability": "view",
      "type": "function"
    },
    {
      "inputs": [
        {
          "internalType": "address",
          "name": "_manage",
          "type": "address"
        }
      ],
      "name": "removeManage",
      "outputs": [],
      "stateMutability": "nonpayable",
      "type": "function"
    },
    {
      "inputs": [],
      "name": "renounceOwnership",
      "outputs": [],
      "stateMutability": "nonpayable",
      "type": "function"
    },
    {
      "inputs": [
        {
          "internalType": "address",
          "name": "from",
          "type": "address"
        },
        {
          "internalType": "address",
          "name": "to",
          "type": "address"
        },
        {
          "internalType": "uint256",
          "name": "tokenId",
          "type": "uint256"
        }
      ],
      "name": "safeTransferFrom",
      "outputs": [],
      "stateMutability": "nonpayable",
      "type": "function"
    },
    {
      "inputs": [
        {
          "internalType": "address",
          "name": "from",
          "type": "address"
        },
        {
          "internalType": "address",
          "name": "to",
          "type": "address"
        },
        {
          "internalType": "uint256",
          "name": "tokenId",
          "type": "uint256"
        },
        {
          "internalType": "bytes",
          "name": "data",
          "type": "bytes"
        }
      ],
      "name": "safeTransferFrom",
      "outputs": [],
      "stateMutability": "nonpayable",
      "type": "function"
    },
    {
      "inputs": [
        {
          "internalType": "address",
          "name": "operator",
          "type": "address"
        },
        {
          "internalType": "bool",
          "name": "approved",
          "type": "bool"
        }
      ],
      "name": "setApprovalForAll",
      "outputs": [],
      "stateMutability": "nonpayable",
      "type": "function"
    },
    {
      "inputs": [
        {
          "internalType": "string",
          "name": "baseURI_",
          "type": "string"
        }
      ],
      "name": "setBaseURI",
      "outputs": [],
      "stateMutability": "nonpayable",
      "type": "function"
    },
    {
      "inputs": [
        {
          "internalType": "bytes4",
          "name": "interfaceId",
          "type": "bytes4"
        }
      ],
      "name": "supportsInterface",
      "outputs": [
        {
          "internalType": "bool",
          "name": "",
          "type": "bool"
        }
      ],
      "stateMutability": "view",
      "type": "function"
    },
    {
      "inputs": [],
      "name": "symbol",
      "outputs": [
        {
          "internalType": "string",
          "name": "",
          "type": "string"
        }
      ],
      "stateMutability": "view",
      "type": "function"
    },
    {
      "inputs": [
        {
          "internalType": "uint256",
          "name": "tokenId",
          "type": "uint256"
        }
      ],
      "name": "tokenURI",
      "outputs": [
        {
          "internalType": "string",
          "name": "",
          "type": "string"
        }
      ],
      "stateMutability": "view",
      "type": "function"
    },
    {
      "inputs": [
        {
          "internalType": "address",
          "name": "from",
          "type": "address"
        },
        {
          "internalType": "address",
          "name": "to",
          "type": "address"
        },
        {
          "internalType": "uint256",
          "name": "tokenId",
          "type": "uint256"
        }
      ],
      "name": "transferFrom",
      "outputs": [],
      "stateMutability": "nonpayable",
      "type": "function"
    },
    {
      "inputs": [
        {
          "internalType": "address",
          "name": "newOwner",
          "type": "address"
        }
      ],
      "name": "transferOwnership",
      "outputs": [],
      "stateMutability": "nonpayable",
      "type": "function"
    },
    {
      "inputs": [],
      "name": "unpause",
      "outputs": [],
      "stateMutability": "nonpayable",
      "type": "function"
    }
  ],
  "bytecode": "0x60806040523480156200001157600080fd5b50604080518082018252600881526727232a26b4b732b960c11b60208083019182528351808501909452600584526426a4a722a960d91b9084015281519192916200005f9160009162000200565b5080516200007590600190602084019062000200565b50506006805460ff19169055506200008d33620000d2565b60408051808201909152601d81527f68747470733a2f2f6170692e6d6574612d6274632e6f72672f6e66742f0000006020820152620000cc906200012c565b62000321565b600680546001600160a01b03838116610100818102610100600160a81b031985161790945560405193909204169182907f8be0079c531659141344cd1fd0a4f28419497f9722a3daafe3b4186f6b6457e090600090a35050565b6200013662000199565b80516200014b90600990602084019062000200565b50806040516200015c9190620002a6565b604051908190038120338252907f1f385d9cd3e76e1eb420621360e7a3dfb0b48750c4569e5326652de6037946439060200160405180910390a250565b6006546001600160a01b03610100909104163314620001fe5760405162461bcd60e51b815260206004820181905260248201527f4f776e61626c653a2063616c6c6572206973206e6f7420746865206f776e6572604482015260640160405180910390fd5b565b8280546200020e90620002e4565b90600052602060002090601f0160209004810192826200023257600085556200027d565b82601f106200024d57805160ff19168380011785556200027d565b828001600101855582156200027d579182015b828111156200027d57825182559160200191906001019062000260565b506200028b9291506200028f565b5090565b5b808211156200028b576000815560010162000290565b6000825160005b81811015620002c95760208186018101518583015201620002ad565b81811115620002d9576000828501525b509190910192915050565b600181811c90821680620002f957607f821691505b602082108114156200031b57634e487b7160e01b600052602260045260246000fd5b50919050565b611be480620003316000396000f3fe608060405234801561001057600080fd5b506004361061018e5760003560e01c806370a08231116100de57806395d89b4111610097578063b88d4fde11610071578063b88d4fde14610348578063c87b56dd1461035b578063e985e9c51461036e578063f2fde38b146103aa57600080fd5b806395d89b411461031a5780639f76808914610322578063a22cb4651461033557600080fd5b806370a08231146102ab578063715018a6146102be5780638456cb59146102c657806385767e3c146102ce5780638da5cb5b146102e1578063939a743a146102f757600080fd5b806342842e0e1161014b5780635c975abb116101255780635c975abb146102645780636352211e1461026f5780636a627842146102825780636c0360eb146102a357600080fd5b806342842e0e1461022b57806342966c681461023e57806355f804b31461025157600080fd5b806301ffc9a71461019357806306fdde03146101bb578063081812fc146101d0578063095ea7b3146101fb57806323b872dd146102105780633f4ba83a14610223575b600080fd5b6101a66101a1366004611864565b6103bd565b60405190151581526020015b60405180910390f35b6101c361040f565b6040516101b291906119b4565b6101e36101de3660046118e7565b6104a1565b6040516001600160a01b0390911681526020016101b2565b61020e61020936600461183a565b6104c8565b005b61020e61021e366004611746565b6105e3565b61020e610615565b61020e610239366004611746565b610663565b61020e61024c3660046118e7565b61067e565b61020e61025f36600461189e565b6106f8565b60065460ff166101a6565b6101e361027d3660046118e7565b61075f565b6102956102903660046116f8565b6107bf565b6040519081526020016101b2565b6101c3610835565b6102956102b93660046116f8565b6108c3565b61020e610949565b61020e61095d565b61020e6102dc3660046116f8565b6109a5565b60065461010090046001600160a01b03166101e3565b6101a66103053660046116f8565b60076020526000908152604090205460ff1681565b6101c3610a05565b61020e6103303660046116f8565b610a14565b61020e6103433660046117fe565b610a70565b61020e610356366004611782565b610a7f565b6101c36103693660046118e7565b610ab7565b6101a661037c366004611713565b6001600160a01b03918216600090815260056020908152604080832093909416825291909152205460ff1690565b61020e6103b83660046116f8565b610b1e565b60006001600160e01b031982166380ac58cd60e01b14806103ee57506001600160e01b03198216635b5e139f60e01b145b8061040957506301ffc9a760e01b6001600160e01b03198316145b92915050565b60606000805461041e90611ad6565b80601f016020809104026020016040519081016040528092919081815260200182805461044a90611ad6565b80156104975780601f1061046c57610100808354040283529160200191610497565b820191906000526020600020905b81548152906001019060200180831161047a57829003601f168201915b5050505050905090565b60006104ac82610b94565b506000908152600460205260409020546001600160a01b031690565b60006104d38261075f565b9050806001600160a01b0316836001600160a01b031614156105465760405162461bcd60e51b815260206004820152602160248201527f4552433732313a20617070726f76616c20746f2063757272656e74206f776e656044820152603960f91b60648201526084015b60405180910390fd5b336001600160a01b03821614806105625750610562813361037c565b6105d45760405162461bcd60e51b815260206004820152603e60248201527f4552433732313a20617070726f76652063616c6c6572206973206e6f7420746f60448201527f6b656e206f776e6572206e6f7220617070726f76656420666f7220616c6c0000606482015260840161053d565b6105de8383610bf3565b505050565b6105ee335b82610c61565b61060a5760405162461bcd60e51b815260040161053d90611a19565b6105de838383610ce0565b61061d610e87565b610625610ee7565b61062d610f30565b6040513381527f9f0682ebfbd7a5387c2fd5dce8c4a5022b7f8a7090392ac53f6416c63efa9c67906020015b60405180910390a1565b6105de83838360405180602001604052806000815250610a7f565b610687336105e8565b6106ec5760405162461bcd60e51b815260206004820152603060248201527f4552433732314275726e61626c653a2063616c6c6572206973206e6f74206f7760448201526f1b995c881b9bdc88185c1c1c9bdd995960821b606482015260840161053d565b6106f581610f7d565b50565b610700610e87565b80516107139060099060208401906115d2565b5080604051610722919061192c565b604051908190038120338252907f1f385d9cd3e76e1eb420621360e7a3dfb0b48750c4569e5326652de6037946439060200160405180910390a250565b6000818152600260205260408120546001600160a01b0316806104095760405162461bcd60e51b8152602060048201526018602482015277115490cdcc8c4e881a5b9d985b1a59081d1bdad95b88125160421b604482015260640161053d565b3360009081526007602052604081205460ff1661080b5760405162461bcd60e51b815260206004820152600a6024820152694e6f74206d616e61676560b01b604482015260640161053d565b610819600880546001019055565b600061082460085490565b90506104098382611024565b919050565b6009805461084290611ad6565b80601f016020809104026020016040519081016040528092919081815260200182805461086e90611ad6565b80156108bb5780601f10610890576101008083540402835291602001916108bb565b820191906000526020600020905b81548152906001019060200180831161089e57829003601f168201915b505050505081565b60006001600160a01b03821661092d5760405162461bcd60e51b815260206004820152602960248201527f4552433732313a2061646472657373207a65726f206973206e6f7420612076616044820152683634b21037bbb732b960b91b606482015260840161053d565b506001600160a01b031660009081526003602052604090205490565b610951610e87565b61095b6000611172565b565b610965610e87565b61096d6111cc565b610975611212565b6040513381527fcefccc61a219f93791fb6e4db09576ac77dc4e7edf2a73b47634321897eee98a90602001610659565b6109ad610e87565b6001600160a01b038116600090815260076020908152604091829020805460ff1916905590513381527f5183253754ba052cfc555ea976f801b56061286c3865afb3f30ce7653934061391015b60405180910390a150565b60606001805461041e90611ad6565b610a1c610e87565b6001600160a01b038116600090815260076020908152604091829020805460ff1916600117905590513381527fd45d067b2baa4263b3d75da31978feee060cf9a6f8dbf7d89ddda22dac1bf75291016109fa565b610a7b33838361124f565b5050565b610a893383610c61565b610aa55760405162461bcd60e51b815260040161053d90611a19565b610ab18484848461131e565b50505050565b6060610ac282610b94565b6000610acc611351565b90506000815111610aec5760405180602001604052806000815250610b17565b80610af684611360565b604051602001610b07929190611948565b6040516020818303038152906040525b9392505050565b610b26610e87565b6001600160a01b038116610b8b5760405162461bcd60e51b815260206004820152602660248201527f4f776e61626c653a206e6577206f776e657220697320746865207a65726f206160448201526564647265737360d01b606482015260840161053d565b6106f581611172565b6000818152600260205260409020546001600160a01b03166106f55760405162461bcd60e51b8152602060048201526018602482015277115490cdcc8c4e881a5b9d985b1a59081d1bdad95b88125160421b604482015260640161053d565b600081815260046020526040902080546001600160a01b0319166001600160a01b0384169081179091558190610c288261075f565b6001600160a01b03167f8c5be1e5ebec7d5bd14f71427d1e84f3dd0314c0f7b2291e5b200ac8c7c3b92560405160405180910390a45050565b600080610c6d8361075f565b9050806001600160a01b0316846001600160a01b03161480610cb457506001600160a01b0380821660009081526005602090815260408083209388168352929052205460ff165b80610cd85750836001600160a01b0316610ccd846104a1565b6001600160a01b0316145b949350505050565b826001600160a01b0316610cf38261075f565b6001600160a01b031614610d575760405162461bcd60e51b815260206004820152602560248201527f4552433732313a207472616e736665722066726f6d20696e636f72726563742060448201526437bbb732b960d91b606482015260840161053d565b6001600160a01b038216610db95760405162461bcd60e51b8152602060048201526024808201527f4552433732313a207472616e7366657220746f20746865207a65726f206164646044820152637265737360e01b606482015260840161053d565b610dc483838361145e565b610dcf600082610bf3565b6001600160a01b0383166000908152600360205260408120805460019290610df8908490611a93565b90915550506001600160a01b0382166000908152600360205260408120805460019290610e26908490611a67565b909155505060008181526002602052604080822080546001600160a01b0319166001600160a01b0386811691821790925591518493918716917fddf252ad1be2c89b69c2b068fc378daa952ba7f163c4a11628f55a4df523b3ef91a4505050565b6006546001600160a01b0361010090910416331461095b5760405162461bcd60e51b815260206004820181905260248201527f4f776e61626c653a2063616c6c6572206973206e6f7420746865206f776e6572604482015260640161053d565b60065460ff1661095b5760405162461bcd60e51b815260206004820152601460248201527314185d5cd8589b194e881b9bdd081c185d5cd95960621b604482015260640161053d565b610f38610ee7565b6006805460ff191690557f5db9ee0a495bf2e6ff9c91a7834c1ba4fdd244a5e8aa4e537bd38aeae4b073aa335b6040516001600160a01b039091168152602001610659565b6000610f888261075f565b9050610f968160008461145e565b610fa1600083610bf3565b6001600160a01b0381166000908152600360205260408120805460019290610fca908490611a93565b909155505060008281526002602052604080822080546001600160a01b0319169055518391906001600160a01b038416907fddf252ad1be2c89b69c2b068fc378daa952ba7f163c4a11628f55a4df523b3ef908390a45050565b6001600160a01b03821661107a5760405162461bcd60e51b815260206004820181905260248201527f4552433732313a206d696e7420746f20746865207a65726f2061646472657373604482015260640161053d565b6000818152600260205260409020546001600160a01b0316156110df5760405162461bcd60e51b815260206004820152601c60248201527f4552433732313a20746f6b656e20616c7265616479206d696e74656400000000604482015260640161053d565b6110eb6000838361145e565b6001600160a01b0382166000908152600360205260408120805460019290611114908490611a67565b909155505060008181526002602052604080822080546001600160a01b0319166001600160a01b03861690811790915590518392907fddf252ad1be2c89b69c2b068fc378daa952ba7f163c4a11628f55a4df523b3ef908290a45050565b600680546001600160a01b03838116610100818102610100600160a81b031985161790945560405193909204169182907f8be0079c531659141344cd1fd0a4f28419497f9722a3daafe3b4186f6b6457e090600090a35050565b60065460ff161561095b5760405162461bcd60e51b815260206004820152601060248201526f14185d5cd8589b194e881c185d5cd95960821b604482015260640161053d565b61121a6111cc565b6006805460ff191660011790557f62e78cea01bee320cd4e420270b5ea74000d11b0c9f74754ebdbfc544b05a258610f653390565b816001600160a01b0316836001600160a01b031614156112b15760405162461bcd60e51b815260206004820152601960248201527f4552433732313a20617070726f766520746f2063616c6c657200000000000000604482015260640161053d565b6001600160a01b03838116600081815260056020908152604080832094871680845294825291829020805460ff191686151590811790915591519182527f17307eab39ab6107e8899845ad3d59bd9653f200f220920489ca2b5937696c31910160405180910390a3505050565b611329848484610ce0565b611335848484846114c5565b610ab15760405162461bcd60e51b815260040161053d906119c7565b60606009805461041e90611ad6565b6060816113845750506040805180820190915260018152600360fc1b602082015290565b8160005b81156113ae578061139881611b11565b91506113a79050600a83611a7f565b9150611388565b60008167ffffffffffffffff8111156113c9576113c9611b82565b6040519080825280601f01601f1916602001820160405280156113f3576020820181803683370190505b5090505b8415610cd857611408600183611a93565b9150611415600a86611b2c565b611420906030611a67565b60f81b81838151811061143557611435611b6c565b60200101906001600160f81b031916908160001a905350611457600a86611a7f565b94506113f7565b60065460ff16156105de5760405162461bcd60e51b815260206004820152602b60248201527f4552433732315061757361626c653a20746f6b656e207472616e73666572207760448201526a1a1a5b19481c185d5cd95960aa1b606482015260840161053d565b60006001600160a01b0384163b156115c757604051630a85bd0160e11b81526001600160a01b0385169063150b7a0290611509903390899088908890600401611977565b602060405180830381600087803b15801561152357600080fd5b505af1925050508015611553575060408051601f3d908101601f1916820190925261155091810190611881565b60015b6115ad573d808015611581576040519150601f19603f3d011682016040523d82523d6000602084013e611586565b606091505b5080516115a55760405162461bcd60e51b815260040161053d906119c7565b805181602001fd5b6001600160e01b031916630a85bd0160e11b149050610cd8565b506001949350505050565b8280546115de90611ad6565b90600052602060002090601f0160209004810192826116005760008555611646565b82601f1061161957805160ff1916838001178555611646565b82800160010185558215611646579182015b8281111561164657825182559160200191906001019061162b565b50611652929150611656565b5090565b5b808211156116525760008155600101611657565b600067ffffffffffffffff8084111561168657611686611b82565b604051601f8501601f19908116603f011681019082821181831017156116ae576116ae611b82565b816040528093508581528686860111156116c757600080fd5b858560208301376000602087830101525050509392505050565b80356001600160a01b038116811461083057600080fd5b60006020828403121561170a57600080fd5b610b17826116e1565b6000806040838503121561172657600080fd5b61172f836116e1565b915061173d602084016116e1565b90509250929050565b60008060006060848603121561175b57600080fd5b611764846116e1565b9250611772602085016116e1565b9150604084013590509250925092565b6000806000806080858703121561179857600080fd5b6117a1856116e1565b93506117af602086016116e1565b925060408501359150606085013567ffffffffffffffff8111156117d257600080fd5b8501601f810187136117e357600080fd5b6117f28782356020840161166b565b91505092959194509250565b6000806040838503121561181157600080fd5b61181a836116e1565b91506020830135801515811461182f57600080fd5b809150509250929050565b6000806040838503121561184d57600080fd5b611856836116e1565b946020939093013593505050565b60006020828403121561187657600080fd5b8135610b1781611b98565b60006020828403121561189357600080fd5b8151610b1781611b98565b6000602082840312156118b057600080fd5b813567ffffffffffffffff8111156118c757600080fd5b8201601f810184136118d857600080fd5b610cd88482356020840161166b565b6000602082840312156118f957600080fd5b5035919050565b60008151808452611918816020860160208601611aaa565b601f01601f19169290920160200192915050565b6000825161193e818460208701611aaa565b9190910192915050565b6000835161195a818460208801611aaa565b83519083019061196e818360208801611aaa565b01949350505050565b6001600160a01b03858116825284166020820152604081018390526080606082018190526000906119aa90830184611900565b9695505050505050565b602081526000610b176020830184611900565b60208082526032908201527f4552433732313a207472616e7366657220746f206e6f6e20455243373231526560408201527131b2b4bb32b91034b6b83632b6b2b73a32b960711b606082015260800190565b6020808252602e908201527f4552433732313a2063616c6c6572206973206e6f7420746f6b656e206f776e6560408201526d1c881b9bdc88185c1c1c9bdd995960921b606082015260800190565b60008219821115611a7a57611a7a611b40565b500190565b600082611a8e57611a8e611b56565b500490565b600082821015611aa557611aa5611b40565b500390565b60005b83811015611ac5578181015183820152602001611aad565b83811115610ab15750506000910152565b600181811c90821680611aea57607f821691505b60208210811415611b0b57634e487b7160e01b600052602260045260246000fd5b50919050565b6000600019821415611b2557611b25611b40565b5060010190565b600082611b3b57611b3b611b56565b500690565b634e487b7160e01b600052601160045260246000fd5b634e487b7160e01b600052601260045260246000fd5b634e487b7160e01b600052603260045260246000fd5b634e487b7160e01b600052604160045260246000fd5b6001600160e01b0319811681146106f557600080fdfea2646970667358221220867db6c7cc16e0304c914044e3c833161339ca9ea0c8d5af411753fee814499564736f6c63430008060033",
  "linkReferences": {},
  "deployedLinkReferences": {}
}