{
  "_format": "hh-sol-artifact-1",
  "contractName": "NFTRepository",
  "sourceName": "contracts/NFTRepository.sol",
  "abi": [
    {
      "anonymous": false,
      "inputs": [
        {
          "indexed": true,
          "internalType": "uint256",
          "name": "id",
          "type": "uint256"
        }
      ],
      "name": "AddMinter",
      "type": "event"
    },
    {
      "anonymous": false,
      "inputs": [
        {
          "indexed": true,
          "internalType": "uint256",
          "name": "id",
          "type": "uint256"
        }
      ],
      "name": "AddPool",
      "type": "event"
    },
    {
      "anonymous": false,
      "inputs": [
        {
          "indexed": true,
          "internalType": "address",
          "name": "newOwner",
          "type": "address"
        }
      ],
      "name": "NewOwnershipAccepted",
      "type": "event"
    },
    {
      "anonymous": false,
      "inputs": [
        {
          "indexed": true,
          "internalType": "address",
          "name": "previousOwner",
          "type": "address"
        },
        {
          "indexed": true,
          "internalType": "address",
          "name": "newOwner",
          "type": "address"
        }
      ],
      "name": "OwnershipTransferred",
      "type": "event"
    },
    {
      "anonymous": false,
      "inputs": [
        {
          "indexed": true,
          "internalType": "uint256",
          "name": "id",
          "type": "uint256"
        }
      ],
      "name": "RemoveMinter",
      "type": "event"
    },
    {
      "anonymous": false,
      "inputs": [
        {
          "indexed": true,
          "internalType": "uint256",
          "name": "id",
          "type": "uint256"
        }
      ],
      "name": "RemovePool",
      "type": "event"
    },
    {
      "inputs": [
        {
          "internalType": "address",
          "name": "newOwner",
          "type": "address"
        }
      ],
      "name": "acceptNewOwnership",
      "outputs": [],
      "stateMutability": "nonpayable",
      "type": "function"
    },
    {
      "inputs": [
        {
          "internalType": "address",
          "name": "governance",
          "type": "address"
        }
      ],
      "name": "addGovernance",
      "outputs": [],
      "stateMutability": "nonpayable",
      "type": "function"
    },
    {
      "inputs": [
        {
          "internalType": "uint256",
          "name": "id",
          "type": "uint256"
        },
        {
          "internalType": "uint256[]",
          "name": "properties",
          "type": "uint256[]"
        }
      ],
      "name": "addMiner",
      "outputs": [],
      "stateMutability": "nonpayable",
      "type": "function"
    },
    {
      "inputs": [
        {
          "internalType": "uint256",
          "name": "id",
          "type": "uint256"
        },
        {
          "internalType": "uint256[]",
          "name": "properties",
          "type": "uint256[]"
        }
      ],
      "name": "addPool",
      "outputs": [],
      "stateMutability": "nonpayable",
      "type": "function"
    },
    {
      "inputs": [
        {
          "internalType": "uint256",
          "name": "id",
          "type": "uint256"
        }
      ],
      "name": "getMiner",
      "outputs": [
        {
          "internalType": "uint256[]",
          "name": "properties",
          "type": "uint256[]"
        }
      ],
      "stateMutability": "view",
      "type": "function"
    },
    {
      "inputs": [
        {
          "internalType": "uint256",
          "name": "id",
          "type": "uint256"
        }
      ],
      "name": "getMinerConsumption",
      "outputs": [
        {
          "internalType": "uint256",
          "name": "consumption",
          "type": "uint256"
        }
      ],
      "stateMutability": "view",
      "type": "function"
    },
    {
      "inputs": [
        {
          "internalType": "uint256",
          "name": "id",
          "type": "uint256"
        }
      ],
      "name": "getMinerCreateTime",
      "outputs": [
        {
          "internalType": "uint256",
          "name": "time",
          "type": "uint256"
        }
      ],
      "stateMutability": "view",
      "type": "function"
    },
    {
      "inputs": [
        {
          "internalType": "uint256",
          "name": "id",
          "type": "uint256"
        }
      ],
      "name": "getMinerHashRate",
      "outputs": [
        {
          "internalType": "uint256",
          "name": "hashRate",
          "type": "uint256"
        }
      ],
      "stateMutability": "view",
      "type": "function"
    },
    {
      "inputs": [
        {
          "internalType": "uint256",
          "name": "id",
          "type": "uint256"
        }
      ],
      "name": "getMinerMBTCPrice",
      "outputs": [
        {
          "internalType": "uint256",
          "name": "price",
          "type": "uint256"
        }
      ],
      "stateMutability": "view",
      "type": "function"
    },
    {
      "inputs": [
        {
          "internalType": "uint256",
          "name": "id",
          "type": "uint256"
        }
      ],
      "name": "getMinerUsdtPrice",
      "outputs": [
        {
          "internalType": "uint256",
          "name": "price",
          "type": "uint256"
        }
      ],
      "stateMutability": "view",
      "type": "function"
    },
    {
      "inputs": [
        {
          "internalType": "uint256",
          "name": "id",
          "type": "uint256"
        }
      ],
      "name": "getPool",
      "outputs": [
        {
          "internalType": "uint256[]",
          "name": "properties",
          "type": "uint256[]"
        }
      ],
      "stateMutability": "view",
      "type": "function"
    },
    {
      "inputs": [
        {
          "internalType": "uint256",
          "name": "id",
          "type": "uint256"
        }
      ],
      "name": "getPoolAlpha",
      "outputs": [
        {
          "internalType": "uint256",
          "name": "alpha",
          "type": "uint256"
        }
      ],
      "stateMutability": "view",
      "type": "function"
    },
    {
      "inputs": [
        {
          "internalType": "uint256",
          "name": "id",
          "type": "uint256"
        }
      ],
      "name": "getPoolBeta",
      "outputs": [
        {
          "internalType": "uint256",
          "name": "beta",
          "type": "uint256"
        }
      ],
      "stateMutability": "view",
      "type": "function"
    },
    {
      "inputs": [
        {
          "internalType": "uint256",
          "name": "id",
          "type": "uint256"
        }
      ],
      "name": "getPoolBurnRate",
      "outputs": [
        {
          "internalType": "uint256",
          "name": "burnRate",
          "type": "uint256"
        }
      ],
      "stateMutability": "view",
      "type": "function"
    },
    {
      "inputs": [
        {
          "internalType": "uint256",
          "name": "id",
          "type": "uint256"
        }
      ],
      "name": "getPoolDelta",
      "outputs": [
        {
          "internalType": "uint256",
          "name": "delta",
          "type": "uint256"
        }
      ],
      "stateMutability": "view",
      "type": "function"
    },
    {
      "inputs": [
        {
          "internalType": "uint256",
          "name": "id",
          "type": "uint256"
        }
      ],
      "name": "getPoolGamma",
      "outputs": [
        {
          "internalType": "uint256",
          "name": "gamma",
          "type": "uint256"
        }
      ],
      "stateMutability": "view",
      "type": "function"
    },
    {
      "inputs": [
        {
          "internalType": "uint256",
          "name": "id",
          "type": "uint256"
        }
      ],
      "name": "getPoolTax",
      "outputs": [
        {
          "internalType": "uint256",
          "name": "tax",
          "type": "uint256"
        }
      ],
      "stateMutability": "view",
      "type": "function"
    },
    {
      "inputs": [
        {
          "internalType": "uint256",
          "name": "id",
          "type": "uint256"
        }
      ],
      "name": "getPoolVolume",
      "outputs": [
        {
          "internalType": "uint256",
          "name": "volume",
          "type": "uint256"
        }
      ],
      "stateMutability": "view",
      "type": "function"
    },
    {
      "inputs": [
        {
          "internalType": "address",
          "name": "",
          "type": "address"
        }
      ],
      "name": "governances",
      "outputs": [
        {
          "internalType": "bool",
          "name": "",
          "type": "bool"
        }
      ],
      "stateMutability": "view",
      "type": "function"
    },
    {
      "inputs": [],
      "name": "owner",
      "outputs": [
        {
          "internalType": "address",
          "name": "",
          "type": "address"
        }
      ],
      "stateMutability": "view",
      "type": "function"
    },
    {
      "inputs": [
        {
          "internalType": "address",
          "name": "governance",
          "type": "address"
        }
      ],
      "name": "removeGovernance",
      "outputs": [],
      "stateMutability": "nonpayable",
      "type": "function"
    },
    {
      "inputs": [
        {
          "internalType": "uint256",
          "name": "id",
          "type": "uint256"
        }
      ],
      "name": "removeMiner",
      "outputs": [],
      "stateMutability": "nonpayable",
      "type": "function"
    },
    {
      "inputs": [
        {
          "internalType": "uint256",
          "name": "id",
          "type": "uint256"
        }
      ],
      "name": "removePool",
      "outputs": [],
      "stateMutability": "nonpayable",
      "type": "function"
    },
    {
      "inputs": [],
      "name": "renounceOwnership",
      "outputs": [],
      "stateMutability": "nonpayable",
      "type": "function"
    },
    {
      "inputs": [
        {
          "internalType": "address",
          "name": "newOwner",
          "type": "address"
        }
      ],
      "name": "transferOwnership",
      "outputs": [],
      "stateMutability": "nonpayable",
      "type": "function"
    }
  ],
  "bytecode": "0x608060405260006100146100b760201b60201c565b9050806000806101000a81548173ffffffffffffffffffffffffffffffffffffffff021916908373ffffffffffffffffffffffffffffffffffffffff1602179055508073ffffffffffffffffffffffffffffffffffffffff16600073ffffffffffffffffffffffffffffffffffffffff167f8be0079c531659141344cd1fd0a4f28419497f9722a3daafe3b4186f6b6457e060405160405180910390a3506100bf565b600033905090565b611eb2806100ce6000396000f3fe608060405234801561001057600080fd5b50600436106101735760003560e01c806388e8e6fa116100de578063a38dcbd011610097578063c0873d9911610071578063c0873d991461082a578063c4c7f2f41461086c578063c5e70ba8146108b0578063f2fde38b146108f257610173565b8063a38dcbd0146106f8578063bec3fbba14610726578063bee208851461076857610173565b806388e8e6fa146105745780638da5cb5b146105a2578063906e2479146105ec57806390780bae146106305780639c515ac414610674578063a136aadc146106b657610173565b80633cc8f306116101305780633cc8f306146103455780635b3319f8146103c85780635cc451221461048a578063715018a6146104cc578063742b2f65146104d6578063870f44141461053257610173565b8063068bcd8d14610178578063112d94eb146101fb57806329dc19471461023d5780632e5e519e1461027f57806336f37934146102c1578063383fe3e614610303575b600080fd5b6101a46004803603602081101561018e57600080fd5b8101908080359060200190929190505050610936565b6040518080602001828103825283818151815260200191508051906020019060200280838360005b838110156101e75780820151818401526020810190506101cc565b505050509050019250505060405180910390f35b6102276004803603602081101561021157600080fd5b81019080803590602001909291905050506109a1565b6040518082815260200191505060405180910390f35b6102696004803603602081101561025357600080fd5b8101908080359060200190929190505050610a3a565b6040518082815260200191505060405180910390f35b6102ab6004803603602081101561029557600080fd5b8101908080359060200190929190505050610ad3565b6040518082815260200191505060405180910390f35b6102ed600480360360208110156102d757600080fd5b8101908080359060200190929190505050610b6c565b6040518082815260200191505060405180910390f35b61032f6004803603602081101561031957600080fd5b8101908080359060200190929190505050610c05565b6040518082815260200191505060405180910390f35b6103716004803603602081101561035b57600080fd5b8101908080359060200190929190505050610c9e565b6040518080602001828103825283818151815260200191508051906020019060200280838360005b838110156103b4578082015181840152602081019050610399565b505050509050019250505060405180910390f35b610488600480360360408110156103de57600080fd5b81019080803590602001909291908035906020019064010000000081111561040557600080fd5b82018360208201111561041757600080fd5b8035906020019184602083028401116401000000008311171561043957600080fd5b919080806020026020016040519081016040528093929190818152602001838360200280828437600081840152601f19601f820116905080830192505050505050509192919290505050610d09565b005b6104b6600480360360208110156104a057600080fd5b8101908080359060200190929190505050610e28565b6040518082815260200191505060405180910390f35b6104d4610ec1565b005b610518600480360360208110156104ec57600080fd5b81019080803573ffffffffffffffffffffffffffffffffffffffff169060200190929190505050611049565b604051808215151515815260200191505060405180910390f35b61055e6004803603602081101561054857600080fd5b8101908080359060200190929190505050611069565b6040518082815260200191505060405180910390f35b6105a06004803603602081101561058a57600080fd5b8101908080359060200190929190505050611102565b005b6105aa611217565b604051808273ffffffffffffffffffffffffffffffffffffffff1673ffffffffffffffffffffffffffffffffffffffff16815260200191505060405180910390f35b61062e6004803603602081101561060257600080fd5b81019080803573ffffffffffffffffffffffffffffffffffffffff169060200190929190505050611240565b005b6106726004803603602081101561064657600080fd5b81019080803573ffffffffffffffffffffffffffffffffffffffff169060200190929190505050611364565b005b6106a06004803603602081101561068a57600080fd5b8101908080359060200190929190505050611534565b6040518082815260200191505060405180910390f35b6106e2600480360360208110156106cc57600080fd5b81019080803590602001909291905050506115cd565b6040518082815260200191505060405180910390f35b6107246004803603602081101561070e57600080fd5b8101908080359060200190929190505050611666565b005b6107526004803603602081101561073c57600080fd5b810190808035906020019092919050505061177b565b6040518082815260200191505060405180910390f35b6108286004803603604081101561077e57600080fd5b8101908080359060200190929190803590602001906401000000008111156107a557600080fd5b8201836020820111156107b757600080fd5b803590602001918460208302840111640100000000831117156107d957600080fd5b919080806020026020016040519081016040528093929190818152602001838360200280828437600081840152601f19601f820116905080830192505050505050509192919290505050611814565b005b6108566004803603602081101561084057600080fd5b8101908080359060200190929190505050611933565b6040518082815260200191505060405180910390f35b6108ae6004803603602081101561088257600080fd5b81019080803573ffffffffffffffffffffffffffffffffffffffff1690602001909291905050506119cc565b005b6108dc600480360360208110156108c657600080fd5b8101908080359060200190929190505050611af0565b6040518082815260200191505060405180910390f35b6109346004803603602081101561090857600080fd5b81019080803573ffffffffffffffffffffffffffffffffffffffff169060200190929190505050611b89565b005b60606004600083815260200190815260200160002080548060200260200160405190810160405280929190818152602001828054801561099557602002820191906000526020600020905b815481526020019060010190808311610981575b50505050509050919050565b6000606060046000848152602001908152602001600020805480602002602001604051908101604052809291908181526020018280548015610a0257602002820191906000526020600020905b8154815260200190600101908083116109ee575b50505050509050600081511415610a1c5760009150610a34565b80600581518110610a2957fe5b602002602001015191505b50919050565b6000606060036000848152602001908152602001600020805480602002602001604051908101604052809291908181526020018280548015610a9b57602002820191906000526020600020905b815481526020019060010190808311610a87575b50505050509050600081511415610ab55760009150610acd565b80600381518110610ac257fe5b602002602001015191505b50919050565b6000606060046000848152602001908152602001600020805480602002602001604051908101604052809291908181526020018280548015610b3457602002820191906000526020600020905b815481526020019060010190808311610b20575b50505050509050600081511415610b4e5760009150610b66565b80600181518110610b5b57fe5b602002602001015191505b50919050565b6000606060046000848152602001908152602001600020805480602002602001604051908101604052809291908181526020018280548015610bcd57602002820191906000526020600020905b815481526020019060010190808311610bb9575b50505050509050600081511415610be75760009150610bff565b80600481518110610bf457fe5b602002602001015191505b50919050565b6000606060046000848152602001908152602001600020805480602002602001604051908101604052809291908181526020018280548015610c6657602002820191906000526020600020905b815481526020019060010190808311610c52575b50505050509050600081511415610c805760009150610c98565b80600681518110610c8d57fe5b602002602001015191505b50919050565b606060036000838152602001908152602001600020805480602002602001604051908101604052809291908181526020018280548015610cfd57602002820191906000526020600020905b815481526020019060010190808311610ce9575b50505050509050919050565b60026000610d15611d97565b73ffffffffffffffffffffffffffffffffffffffff1673ffffffffffffffffffffffffffffffffffffffff16815260200190815260200160002060009054906101000a900460ff16610dcf576040517f08c379a000000000000000000000000000000000000000000000000000000000815260040180806020018281038252601f8152602001807f4552433732313a2063616c6c6572206973206e6f7420746865206f776e65720081525060200191505060405180910390fd5b817f61d17a30277d88e5ef89d62b53c24c9c4217f53de4d5739421d11bfc9bef32bb60405160405180910390a280600360008481526020019081526020016000209080519060200190610e23929190611d9f565b505050565b6000606060036000848152602001908152602001600020805480602002602001604051908101604052809291908181526020018280548015610e8957602002820191906000526020600020905b815481526020019060010190808311610e75575b50505050509050600081511415610ea35760009150610ebb565b80600481518110610eb057fe5b602002602001015191505b50919050565b610ec9611d97565b73ffffffffffffffffffffffffffffffffffffffff166000809054906101000a900473ffffffffffffffffffffffffffffffffffffffff1673ffffffffffffffffffffffffffffffffffffffff1614610f8a576040517f08c379a00000000000000000000000000000000000000000000000000000000081526004018080602001828103825260208152602001807f4f776e61626c653a2063616c6c6572206973206e6f7420746865206f776e657281525060200191505060405180910390fd5b600073ffffffffffffffffffffffffffffffffffffffff166000809054906101000a900473ffffffffffffffffffffffffffffffffffffffff1673ffffffffffffffffffffffffffffffffffffffff167f8be0079c531659141344cd1fd0a4f28419497f9722a3daafe3b4186f6b6457e060405160405180910390a360008060006101000a81548173ffffffffffffffffffffffffffffffffffffffff021916908373ffffffffffffffffffffffffffffffffffffffff160217905550565b60026020528060005260406000206000915054906101000a900460ff1681565b60006060600460008481526020019081526020016000208054806020026020016040519081016040528092919081815260200182805480156110ca57602002820191906000526020600020905b8154815260200190600101908083116110b6575b505050505090506000815114156110e457600091506110fc565b806003815181106110f157fe5b602002602001015191505b50919050565b6002600061110e611d97565b73ffffffffffffffffffffffffffffffffffffffff1673ffffffffffffffffffffffffffffffffffffffff16815260200190815260200160002060009054906101000a900460ff166111c8576040517f08c379a000000000000000000000000000000000000000000000000000000000815260040180806020018281038252601f8152602001807f4552433732313a2063616c6c6572206973206e6f7420746865206f776e65720081525060200191505060405180910390fd5b807f59073d6fcf5cdb1b8d325d48d59c448fb49a3c9a57ef653cf49d2c1713c8cf8b60405160405180910390a26003600082815260200190815260200160002060006112149190611dec565b50565b60008060009054906101000a900473ffffffffffffffffffffffffffffffffffffffff16905090565b611248611d97565b73ffffffffffffffffffffffffffffffffffffffff166000809054906101000a900473ffffffffffffffffffffffffffffffffffffffff1673ffffffffffffffffffffffffffffffffffffffff1614611309576040517f08c379a00000000000000000000000000000000000000000000000000000000081526004018080602001828103825260208152602001807f4f776e61626c653a2063616c6c6572206973206e6f7420746865206f776e657281525060200191505060405180910390fd5b6000600260008373ffffffffffffffffffffffffffffffffffffffff1673ffffffffffffffffffffffffffffffffffffffff16815260200190815260200160002060006101000a81548160ff02191690831515021790555050565b61136c611d97565b73ffffffffffffffffffffffffffffffffffffffff16600160009054906101000a900473ffffffffffffffffffffffffffffffffffffffff1673ffffffffffffffffffffffffffffffffffffffff161415611412576040517f08c379a0000000000000000000000000000000000000000000000000000000008152600401808060200182810382526024815260200180611e596024913960400191505060405180910390fd5b8073ffffffffffffffffffffffffffffffffffffffff166000809054906101000a900473ffffffffffffffffffffffffffffffffffffffff1673ffffffffffffffffffffffffffffffffffffffff167f8be0079c531659141344cd1fd0a4f28419497f9722a3daafe3b4186f6b6457e060405160405180910390a3600160009054906101000a900473ffffffffffffffffffffffffffffffffffffffff166000806101000a81548173ffffffffffffffffffffffffffffffffffffffff021916908373ffffffffffffffffffffffffffffffffffffffff1602179055506000600160006101000a81548173ffffffffffffffffffffffffffffffffffffffff021916908373ffffffffffffffffffffffffffffffffffffffff16021790555050565b600060606004600084815260200190815260200160002080548060200260200160405190810160405280929190818152602001828054801561159557602002820191906000526020600020905b815481526020019060010190808311611581575b505050505090506000815114156115af57600091506115c7565b806002815181106115bc57fe5b602002602001015191505b50919050565b600060606003600084815260200190815260200160002080548060200260200160405190810160405280929190818152602001828054801561162e57602002820191906000526020600020905b81548152602001906001019080831161161a575b505050505090506000815114156116485760009150611660565b8060008151811061165557fe5b602002602001015191505b50919050565b60026000611672611d97565b73ffffffffffffffffffffffffffffffffffffffff1673ffffffffffffffffffffffffffffffffffffffff16815260200190815260200160002060009054906101000a900460ff1661172c576040517f08c379a000000000000000000000000000000000000000000000000000000000815260040180806020018281038252601f8152602001807f4552433732313a2063616c6c6572206973206e6f7420746865206f776e65720081525060200191505060405180910390fd5b807fa9c049090afebc2cec22912b6f0ef390f83d83a5d7f08faee82317e03baea62560405160405180910390a26004600082815260200190815260200160002060006117789190611dec565b50565b60006060600360008481526020019081526020016000208054806020026020016040519081016040528092919081815260200182805480156117dc57602002820191906000526020600020905b8154815260200190600101908083116117c8575b505050505090506000815114156117f6576000915061180e565b8060018151811061180357fe5b602002602001015191505b50919050565b60026000611820611d97565b73ffffffffffffffffffffffffffffffffffffffff1673ffffffffffffffffffffffffffffffffffffffff16815260200190815260200160002060009054906101000a900460ff166118da576040517f08c379a000000000000000000000000000000000000000000000000000000000815260040180806020018281038252601f8152602001807f4552433732313a2063616c6c6572206973206e6f7420746865206f776e65720081525060200191505060405180910390fd5b817f6f92874181ba07c8e988c53b7d3c2fdcff7154a3500137bf6a350ebac65c087060405160405180910390a28060046000848152602001908152602001600020908051906020019061192e929190611d9f565b505050565b600060606003600084815260200190815260200160002080548060200260200160405190810160405280929190818152602001828054801561199457602002820191906000526020600020905b815481526020019060010190808311611980575b505050505090506000815114156119ae57600091506119c6565b806002815181106119bb57fe5b602002602001015191505b50919050565b6119d4611d97565b73ffffffffffffffffffffffffffffffffffffffff166000809054906101000a900473ffffffffffffffffffffffffffffffffffffffff1673ffffffffffffffffffffffffffffffffffffffff1614611a95576040517f08c379a00000000000000000000000000000000000000000000000000000000081526004018080602001828103825260208152602001807f4f776e61626c653a2063616c6c6572206973206e6f7420746865206f776e657281525060200191505060405180910390fd5b6001600260008373ffffffffffffffffffffffffffffffffffffffff1673ffffffffffffffffffffffffffffffffffffffff16815260200190815260200160002060006101000a81548160ff02191690831515021790555050565b6000606060046000848152602001908152602001600020805480602002602001604051908101604052809291908181526020018280548015611b5157602002820191906000526020600020905b815481526020019060010190808311611b3d575b50505050509050600081511415611b6b5760009150611b83565b80600081518110611b7857fe5b602002602001015191505b50919050565b611b91611d97565b73ffffffffffffffffffffffffffffffffffffffff166000809054906101000a900473ffffffffffffffffffffffffffffffffffffffff1673ffffffffffffffffffffffffffffffffffffffff1614611c52576040517f08c379a00000000000000000000000000000000000000000000000000000000081526004018080602001828103825260208152602001807f4f776e61626c653a2063616c6c6572206973206e6f7420746865206f776e657281525060200191505060405180910390fd5b600073ffffffffffffffffffffffffffffffffffffffff168173ffffffffffffffffffffffffffffffffffffffff161415611cd8576040517f08c379a0000000000000000000000000000000000000000000000000000000008152600401808060200182810382526026815260200180611e336026913960400191505060405180910390fd5b8073ffffffffffffffffffffffffffffffffffffffff166000809054906101000a900473ffffffffffffffffffffffffffffffffffffffff1673ffffffffffffffffffffffffffffffffffffffff167f8be0079c531659141344cd1fd0a4f28419497f9722a3daafe3b4186f6b6457e060405160405180910390a380600160006101000a81548173ffffffffffffffffffffffffffffffffffffffff021916908373ffffffffffffffffffffffffffffffffffffffff16021790555050565b600033905090565b828054828255906000526020600020908101928215611ddb579160200282015b82811115611dda578251825591602001919060010190611dbf565b5b509050611de89190611e0d565b5090565b5080546000825590600052602060002090810190611e0a9190611e0d565b50565b611e2f91905b80821115611e2b576000816000905550600101611e13565b5090565b9056fe4f776e61626c653a206e6577206f776e657220697320746865207a65726f20616464726573734f776e61626c653a2063616c6c6572206973206e6f7420746865206e6577206f776e6572a2646970667358221220b737b19ea0880d139587b37b89986f06b325fbd5fd8d72fdea0c785fbf86f43364736f6c63430006060033",
  "linkReferences": {},
  "deployedLinkReferences": {}
}