{
  "_format": "hh-sol-artifact-1",
  "contractName": "NFTProperty",
  "sourceName": "contracts/NFTProperty.sol",
  "abi": [
    {
      "anonymous": false,
      "inputs": [
        {
          "indexed": false,
          "internalType": "address",
          "name": "manage",
          "type": "address"
        }
      ],
      "name": "AddManage",
      "type": "event"
    },
    {
      "anonymous": false,
      "inputs": [
        {
          "indexed": true,
          "internalType": "uint256",
          "name": "id",
          "type": "uint256"
        }
      ],
      "name": "AddProperty",
      "type": "event"
    },
    {
      "anonymous": false,
      "inputs": [
        {
          "indexed": true,
          "internalType": "address",
          "name": "previousOwner",
          "type": "address"
        },
        {
          "indexed": true,
          "internalType": "address",
          "name": "newOwner",
          "type": "address"
        }
      ],
      "name": "OwnershipTransferred",
      "type": "event"
    },
    {
      "anonymous": false,
      "inputs": [
        {
          "indexed": false,
          "internalType": "address",
          "name": "manage",
          "type": "address"
        }
      ],
      "name": "RemoveManage",
      "type": "event"
    },
    {
      "anonymous": false,
      "inputs": [
        {
          "indexed": true,
          "internalType": "uint256",
          "name": "id",
          "type": "uint256"
        }
      ],
      "name": "RemoveProperty",
      "type": "event"
    },
    {
      "inputs": [
        {
          "internalType": "address",
          "name": "_manage",
          "type": "address"
        }
      ],
      "name": "addManage",
      "outputs": [],
      "stateMutability": "nonpayable",
      "type": "function"
    },
    {
      "inputs": [
        {
          "internalType": "uint256",
          "name": "id",
          "type": "uint256"
        },
        {
          "internalType": "uint256[]",
          "name": "properties",
          "type": "uint256[]"
        }
      ],
      "name": "addProperty",
      "outputs": [],
      "stateMutability": "nonpayable",
      "type": "function"
    },
    {
      "inputs": [
        {
          "internalType": "uint256",
          "name": "id",
          "type": "uint256"
        }
      ],
      "name": "getConsumption",
      "outputs": [
        {
          "internalType": "uint256",
          "name": "consumption",
          "type": "uint256"
        }
      ],
      "stateMutability": "view",
      "type": "function"
    },
    {
      "inputs": [
        {
          "internalType": "uint256",
          "name": "id",
          "type": "uint256"
        }
      ],
      "name": "getCreateTime",
      "outputs": [
        {
          "internalType": "uint256",
          "name": "time",
          "type": "uint256"
        }
      ],
      "stateMutability": "view",
      "type": "function"
    },
    {
      "inputs": [
        {
          "internalType": "uint256",
          "name": "id",
          "type": "uint256"
        }
      ],
      "name": "getHashRate",
      "outputs": [
        {
          "internalType": "uint256",
          "name": "hashRate",
          "type": "uint256"
        }
      ],
      "stateMutability": "view",
      "type": "function"
    },
    {
      "inputs": [
        {
          "internalType": "address",
          "name": "",
          "type": "address"
        }
      ],
      "name": "manage",
      "outputs": [
        {
          "internalType": "bool",
          "name": "",
          "type": "bool"
        }
      ],
      "stateMutability": "view",
      "type": "function"
    },
    {
      "inputs": [],
      "name": "owner",
      "outputs": [
        {
          "internalType": "address",
          "name": "",
          "type": "address"
        }
      ],
      "stateMutability": "view",
      "type": "function"
    },
    {
      "inputs": [
        {
          "internalType": "uint256",
          "name": "",
          "type": "uint256"
        }
      ],
      "name": "property",
      "outputs": [
        {
          "internalType": "uint256",
          "name": "hashRate",
          "type": "uint256"
        },
        {
          "internalType": "uint256",
          "name": "consumption",
          "type": "uint256"
        },
        {
          "internalType": "uint256",
          "name": "createTime",
          "type": "uint256"
        }
      ],
      "stateMutability": "view",
      "type": "function"
    },
    {
      "inputs": [
        {
          "internalType": "address",
          "name": "_manage",
          "type": "address"
        }
      ],
      "name": "removeManage",
      "outputs": [],
      "stateMutability": "nonpayable",
      "type": "function"
    },
    {
      "inputs": [
        {
          "internalType": "uint256",
          "name": "id",
          "type": "uint256"
        }
      ],
      "name": "removeProperty",
      "outputs": [],
      "stateMutability": "nonpayable",
      "type": "function"
    },
    {
      "inputs": [],
      "name": "renounceOwnership",
      "outputs": [],
      "stateMutability": "nonpayable",
      "type": "function"
    },
    {
      "inputs": [
        {
          "internalType": "address",
          "name": "newOwner",
          "type": "address"
        }
      ],
      "name": "transferOwnership",
      "outputs": [],
      "stateMutability": "nonpayable",
      "type": "function"
    }
  ],
  "bytecode": "0x608060405234801561001057600080fd5b5061001a3361001f565b61006f565b600080546001600160a01b038381166001600160a01b0319831681178455604051919092169283917f8be0079c531659141344cd1fd0a4f28419497f9722a3daafe3b4186f6b6457e09190a35050565b6106e58061007e6000396000f3fe608060405234801561001057600080fd5b50600436106100b45760003560e01c8063939a743a11610071578063939a743a1461018057806394eceda7146101b35780639f768089146101d6578063b19bc6ec146101e9578063bc43d06f1461020d578063f2fde38b1461022057600080fd5b806330e1ad32146100b95780634c490d4b14610107578063715018a61461013557806385767e3c1461013f5780638da5cb5b1461015257806391d4e2881461016d575b600080fd5b6100e76100c7366004610601565b600260208190526000918252604090912080546001820154919092015483565b604080519384526020840192909252908201526060015b60405180910390f35b610127610115366004610601565b60009081526002602052604090205490565b6040519081526020016100fe565b61013d610233565b005b61013d61014d3660046105d1565b610247565b6000546040516001600160a01b0390911681526020016100fe565b61013d61017b36600461061a565b6102a7565b6101a361018e3660046105d1565b60016020526000908152604090205460ff1681565b60405190151581526020016100fe565b6101276101c1366004610601565b60009081526002602052604090206001015490565b61013d6101e43660046105d1565b6103bc565b6101276101f7366004610601565b6000908152600260208190526040909120015490565b61013d61021b366004610601565b610419565b61013d61022e3660046105d1565b6104ae565b61023b610527565b6102456000610581565b565b61024f610527565b6001600160a01b038116600090815260016020908152604091829020805460ff1916905590513381527f5183253754ba052cfc555ea976f801b56061286c3865afb3f30ce7653934061391015b60405180910390a150565b3360009081526001602052604090205460ff166102f85760405162461bcd60e51b815260206004820152600a6024820152694e6f74206d616e61676560b01b60448201526064015b60405180910390fd5b600060405180606001604052808484600081811061031857610318610699565b9050602002013581526020018484600181811061033757610337610699565b9050602002013581526020018484600281811061035657610356610699565b6020908102929092013590925260008781526002808352604080832086518155938601516001850155808601519390910192909255905192935086927f4f0b0411d7e22977391fb1111800112e8795872fc975434465b9d99cd805d6649250a250505050565b6103c4610527565b6001600160a01b038116600090815260016020818152604092839020805460ff191690921790915590513381527fd45d067b2baa4263b3d75da31978feee060cf9a6f8dbf7d89ddda22dac1bf752910161029c565b3360009081526001602052604090205460ff166104655760405162461bcd60e51b815260206004820152600a6024820152694e6f74206d616e61676560b01b60448201526064016102ef565b60405181907f45416c622fe769d3f569dfa9d850ba55adb9221683378c94d2359b24bfcf50f790600090a260009081526002602081905260408220828155600181018390550155565b6104b6610527565b6001600160a01b03811661051b5760405162461bcd60e51b815260206004820152602660248201527f4f776e61626c653a206e6577206f776e657220697320746865207a65726f206160448201526564647265737360d01b60648201526084016102ef565b61052481610581565b50565b6000546001600160a01b031633146102455760405162461bcd60e51b815260206004820181905260248201527f4f776e61626c653a2063616c6c6572206973206e6f7420746865206f776e657260448201526064016102ef565b600080546001600160a01b038381166001600160a01b0319831681178455604051919092169283917f8be0079c531659141344cd1fd0a4f28419497f9722a3daafe3b4186f6b6457e09190a35050565b6000602082840312156105e357600080fd5b81356001600160a01b03811681146105fa57600080fd5b9392505050565b60006020828403121561061357600080fd5b5035919050565b60008060006040848603121561062f57600080fd5b83359250602084013567ffffffffffffffff8082111561064e57600080fd5b818601915086601f83011261066257600080fd5b81358181111561067157600080fd5b8760208260051b850101111561068657600080fd5b6020830194508093505050509250925092565b634e487b7160e01b600052603260045260246000fdfea2646970667358221220bbf367abcfa0cd013dc8725edb3e618a4bbc09fceb97fd231386b7a4f8a3507864736f6c63430008060033",
  "linkReferences": {},
  "deployedLinkReferences": {}
}