{
  "_format": "hh-sol-artifact-1",
  "contractName": "MarketPlace",
  "sourceName": "contracts/MarketPlace.sol",
  "abi": [
    {
      "inputs": [
        {
          "internalType": "address",
          "name": "_usdt",
          "type": "address"
        },
        {
          "internalType": "address",
          "name": "_btcz",
          "type": "address"
        }
      ],
      "stateMutability": "nonpayable",
      "type": "constructor"
    },
    {
      "anonymous": false,
      "inputs": [
        {
          "indexed": true,
          "internalType": "uint256",
          "name": "id",
          "type": "uint256"
        }
      ],
      "name": "Buy",
      "type": "event"
    },
    {
      "anonymous": false,
      "inputs": [
        {
          "indexed": true,
          "internalType": "address",
          "name": "previousOwner",
          "type": "address"
        },
        {
          "indexed": true,
          "internalType": "address",
          "name": "newOwner",
          "type": "address"
        }
      ],
      "name": "OwnershipTransferred",
      "type": "event"
    },
    {
      "anonymous": false,
      "inputs": [
        {
          "indexed": false,
          "internalType": "address",
          "name": "account",
          "type": "address"
        }
      ],
      "name": "Paused",
      "type": "event"
    },
    {
      "anonymous": false,
      "inputs": [
        {
          "indexed": true,
          "internalType": "uint256",
          "name": "id",
          "type": "uint256"
        }
      ],
      "name": "Sell",
      "type": "event"
    },
    {
      "anonymous": false,
      "inputs": [
        {
          "indexed": true,
          "internalType": "address",
          "name": "addr",
          "type": "address"
        }
      ],
      "name": "SetBTCZ",
      "type": "event"
    },
    {
      "anonymous": false,
      "inputs": [
        {
          "indexed": true,
          "internalType": "address",
          "name": "token",
          "type": "address"
        },
        {
          "indexed": false,
          "internalType": "bool",
          "name": "isSupoorted",
          "type": "bool"
        }
      ],
      "name": "SetBaseToken",
      "type": "event"
    },
    {
      "anonymous": false,
      "inputs": [
        {
          "indexed": true,
          "internalType": "uint256",
          "name": "fee",
          "type": "uint256"
        }
      ],
      "name": "SetFee",
      "type": "event"
    },
    {
      "anonymous": false,
      "inputs": [
        {
          "indexed": true,
          "internalType": "uint8",
          "name": "mode",
          "type": "uint8"
        }
      ],
      "name": "SetMode",
      "type": "event"
    },
    {
      "anonymous": false,
      "inputs": [
        {
          "indexed": true,
          "internalType": "address",
          "name": "nft",
          "type": "address"
        }
      ],
      "name": "SetNFT",
      "type": "event"
    },
    {
      "anonymous": false,
      "inputs": [
        {
          "indexed": true,
          "internalType": "uint8",
          "name": "rate",
          "type": "uint8"
        }
      ],
      "name": "SetPriceRate",
      "type": "event"
    },
    {
      "anonymous": false,
      "inputs": [
        {
          "indexed": true,
          "internalType": "address",
          "name": "addr",
          "type": "address"
        }
      ],
      "name": "SetUSDT",
      "type": "event"
    },
    {
      "anonymous": false,
      "inputs": [
        {
          "indexed": true,
          "internalType": "uint256",
          "name": "id",
          "type": "uint256"
        }
      ],
      "name": "Unlock",
      "type": "event"
    },
    {
      "anonymous": false,
      "inputs": [
        {
          "indexed": false,
          "internalType": "address",
          "name": "account",
          "type": "address"
        }
      ],
      "name": "Unpaused",
      "type": "event"
    },
    {
      "inputs": [
        {
          "internalType": "address",
          "name": "target",
          "type": "address"
        },
        {
          "internalType": "uint256",
          "name": "tokenId",
          "type": "uint256"
        }
      ],
      "name": "back",
      "outputs": [],
      "stateMutability": "nonpayable",
      "type": "function"
    },
    {
      "inputs": [
        {
          "internalType": "address",
          "name": "owner",
          "type": "address"
        }
      ],
      "name": "balanceOf",
      "outputs": [
        {
          "internalType": "uint256",
          "name": "",
          "type": "uint256"
        }
      ],
      "stateMutability": "view",
      "type": "function"
    },
    {
      "inputs": [],
      "name": "btczPrice",
      "outputs": [
        {
          "internalType": "uint256",
          "name": "",
          "type": "uint256"
        }
      ],
      "stateMutability": "view",
      "type": "function"
    },
    {
      "inputs": [
        {
          "internalType": "uint256",
          "name": "tokenId",
          "type": "uint256"
        },
        {
          "internalType": "uint256",
          "name": "giftCode",
          "type": "uint256"
        }
      ],
      "name": "buy",
      "outputs": [],
      "stateMutability": "payable",
      "type": "function"
    },
    {
      "inputs": [],
      "name": "fee",
      "outputs": [
        {
          "internalType": "uint256",
          "name": "",
          "type": "uint256"
        }
      ],
      "stateMutability": "view",
      "type": "function"
    },
    {
      "inputs": [
        {
          "internalType": "uint256",
          "name": "tokenId",
          "type": "uint256"
        }
      ],
      "name": "getNFT",
      "outputs": [
        {
          "internalType": "address",
          "name": "baseToken",
          "type": "address"
        },
        {
          "internalType": "uint256",
          "name": "price",
          "type": "uint256"
        },
        {
          "internalType": "bool",
          "name": "hasGiftCode",
          "type": "bool"
        },
        {
          "internalType": "address",
          "name": "owner",
          "type": "address"
        }
      ],
      "stateMutability": "view",
      "type": "function"
    },
    {
      "inputs": [
        {
          "internalType": "address",
          "name": "tokenId",
          "type": "address"
        }
      ],
      "name": "isSupportedBaseToken",
      "outputs": [
        {
          "internalType": "bool",
          "name": "",
          "type": "bool"
        }
      ],
      "stateMutability": "view",
      "type": "function"
    },
    {
      "inputs": [],
      "name": "nft",
      "outputs": [
        {
          "internalType": "contract IERC721",
          "name": "",
          "type": "address"
        }
      ],
      "stateMutability": "view",
      "type": "function"
    },
    {
      "inputs": [
        {
          "internalType": "address",
          "name": "",
          "type": "address"
        },
        {
          "internalType": "address",
          "name": "",
          "type": "address"
        },
        {
          "internalType": "uint256",
          "name": "",
          "type": "uint256"
        },
        {
          "internalType": "bytes",
          "name": "",
          "type": "bytes"
        }
      ],
      "name": "onERC721Received",
      "outputs": [
        {
          "internalType": "bytes4",
          "name": "",
          "type": "bytes4"
        }
      ],
      "stateMutability": "nonpayable",
      "type": "function"
    },
    {
      "inputs": [],
      "name": "owner",
      "outputs": [
        {
          "internalType": "address",
          "name": "",
          "type": "address"
        }
      ],
      "stateMutability": "view",
      "type": "function"
    },
    {
      "inputs": [
        {
          "internalType": "uint256",
          "name": "tokenId",
          "type": "uint256"
        }
      ],
      "name": "ownerOf",
      "outputs": [
        {
          "internalType": "address",
          "name": "",
          "type": "address"
        }
      ],
      "stateMutability": "view",
      "type": "function"
    },
    {
      "inputs": [],
      "name": "pause",
      "outputs": [],
      "stateMutability": "nonpayable",
      "type": "function"
    },
    {
      "inputs": [],
      "name": "paused",
      "outputs": [
        {
          "internalType": "bool",
          "name": "",
          "type": "bool"
        }
      ],
      "stateMutability": "view",
      "type": "function"
    },
    {
      "inputs": [],
      "name": "priceRate",
      "outputs": [
        {
          "internalType": "uint8",
          "name": "",
          "type": "uint8"
        }
      ],
      "stateMutability": "view",
      "type": "function"
    },
    {
      "inputs": [],
      "name": "renounceOwnership",
      "outputs": [],
      "stateMutability": "nonpayable",
      "type": "function"
    },
    {
      "inputs": [
        {
          "internalType": "uint256",
          "name": "tokenId",
          "type": "uint256"
        },
        {
          "internalType": "address",
          "name": "baseToken",
          "type": "address"
        },
        {
          "internalType": "uint256",
          "name": "giftCode",
          "type": "uint256"
        },
        {
          "internalType": "uint256",
          "name": "price",
          "type": "uint256"
        }
      ],
      "name": "sell",
      "outputs": [],
      "stateMutability": "nonpayable",
      "type": "function"
    },
    {
      "inputs": [
        {
          "internalType": "address",
          "name": "addr",
          "type": "address"
        },
        {
          "internalType": "uint256",
          "name": "_btczPrice",
          "type": "uint256"
        }
      ],
      "name": "setBTCZ",
      "outputs": [],
      "stateMutability": "nonpayable",
      "type": "function"
    },
    {
      "inputs": [
        {
          "internalType": "address",
          "name": "addr",
          "type": "address"
        },
        {
          "internalType": "bool",
          "name": "isSupported",
          "type": "bool"
        }
      ],
      "name": "setBaseToken",
      "outputs": [],
      "stateMutability": "nonpayable",
      "type": "function"
    },
    {
      "inputs": [
        {
          "internalType": "uint256",
          "name": "_fee",
          "type": "uint256"
        }
      ],
      "name": "setFee",
      "outputs": [],
      "stateMutability": "nonpayable",
      "type": "function"
    },
    {
      "inputs": [
        {
          "internalType": "uint8",
          "name": "_mode",
          "type": "uint8"
        }
      ],
      "name": "setMode",
      "outputs": [],
      "stateMutability": "nonpayable",
      "type": "function"
    },
    {
      "inputs": [
        {
          "internalType": "address",
          "name": "addr",
          "type": "address"
        }
      ],
      "name": "setNFT",
      "outputs": [],
      "stateMutability": "nonpayable",
      "type": "function"
    },
    {
      "inputs": [
        {
          "internalType": "uint8",
          "name": "_rate",
          "type": "uint8"
        }
      ],
      "name": "setPriceRate",
      "outputs": [],
      "stateMutability": "nonpayable",
      "type": "function"
    },
    {
      "inputs": [
        {
          "internalType": "address",
          "name": "addr",
          "type": "address"
        },
        {
          "internalType": "uint256",
          "name": "_price",
          "type": "uint256"
        }
      ],
      "name": "setUSDT",
      "outputs": [],
      "stateMutability": "nonpayable",
      "type": "function"
    },
    {
      "inputs": [
        {
          "internalType": "address",
          "name": "owner",
          "type": "address"
        },
        {
          "internalType": "uint256",
          "name": "index",
          "type": "uint256"
        }
      ],
      "name": "tokenOfOwnerByIndex",
      "outputs": [
        {
          "internalType": "uint256",
          "name": "",
          "type": "uint256"
        }
      ],
      "stateMutability": "view",
      "type": "function"
    },
    {
      "inputs": [
        {
          "internalType": "address",
          "name": "newOwner",
          "type": "address"
        }
      ],
      "name": "transferOwnership",
      "outputs": [],
      "stateMutability": "nonpayable",
      "type": "function"
    },
    {
      "inputs": [
        {
          "internalType": "uint256",
          "name": "tokenId",
          "type": "uint256"
        }
      ],
      "name": "unlock",
      "outputs": [],
      "stateMutability": "nonpayable",
      "type": "function"
    },
    {
      "inputs": [],
      "name": "unpause",
      "outputs": [],
      "stateMutability": "nonpayable",
      "type": "function"
    },
    {
      "inputs": [],
      "name": "usdtPrice",
      "outputs": [
        {
          "internalType": "uint256",
          "name": "",
          "type": "uint256"
        }
      ],
      "stateMutability": "view",
      "type": "function"
    }
  ],
  "bytecode": "0x60806040523480156200001157600080fd5b5060405162001a4d38038062001a4d83398101604081905262000034916200010a565b6200003f336200009d565b6000805460ff60a01b19169055600480546001600160a01b039384166001600160a01b03199182161790915560058054929093169116179055600a805460ff19166001179055681043561a8829300000600681905560075562000142565b600080546001600160a01b038381166001600160a01b0319831681178455604051919092169283917f8be0079c531659141344cd1fd0a4f28419497f9722a3daafe3b4186f6b6457e09190a35050565b80516001600160a01b03811681146200010557600080fd5b919050565b600080604083850312156200011e57600080fd5b6200012983620000ed565b91506200013960208401620000ed565b90509250929050565b6118fb80620001526000396000f3fe6080604052600436106101b75760003560e01c80638456cb59116100ec578063d6febde81161008a578063eaadb9b911610064578063eaadb9b914610540578063f2fde38b14610560578063f56e9c6614610580578063fab30fc0146105a057600080fd5b8063d6febde814610501578063ddca3f4314610514578063e136f65f1461052a57600080fd5b8063b233e056116100c6578063b233e05614610470578063b23e301414610490578063b870f613146104b0578063ceb791d9146104d057600080fd5b80638456cb59146104045780638da5cb5b14610419578063a605c9991461043757600080fd5b8063576f7ea7116101595780636352211e116101335780636352211e1461037657806369fe0e2d146103af57806370a08231146103cf578063715018a6146103ef57600080fd5b8063576f7ea7146102d85780635c975abb1461032b5780636198e3391461035657600080fd5b806321175b4a1161019557806321175b4a1461024b5780632f745c591461026b5780633f4ba83a1461028b57806347ccca02146102a057600080fd5b80630121b299146101bc57806309d9032a146101e5578063150b7a0214610207575b600080fd5b3480156101c857600080fd5b506101d260075481565b6040519081526020015b60405180910390f35b3480156101f157600080fd5b506102056102003660046116ae565b6105c0565b005b34801561021357600080fd5b5061023261022236600461159b565b630a85bd0160e11b949350505050565b6040516001600160e01b031990911681526020016101dc565b34801561025757600080fd5b50610205610266366004611772565b610622565b34801561027757600080fd5b506101d26102863660046116ae565b61066e565b34801561029757600080fd5b50610205610699565b3480156102ac57600080fd5b506008546102c0906001600160a01b031681565b6040516001600160a01b0390911681526020016101dc565b3480156102e457600080fd5b506102f86102f33660046116fc565b6106b3565b604080516001600160a01b03958616815260208101949094529115159183019190915290911660608201526080016101dc565b34801561033757600080fd5b50600054600160a01b900460ff165b60405190151581526020016101dc565b34801561036257600080fd5b506102056103713660046116fc565b610770565b34801561038257600080fd5b506102c06103913660046116fc565b6000908152600260205260409020600401546001600160a01b031690565b3480156103bb57600080fd5b506102056103ca3660046116fc565b610957565b3480156103db57600080fd5b506101d26103ea366004611580565b61098e565b3480156103fb57600080fd5b50610205610a1c565b34801561041057600080fd5b50610205610a2e565b34801561042557600080fd5b506000546001600160a01b03166102c0565b34801561044357600080fd5b50610346610452366004611580565b6001600160a01b031660009081526003602052604090205460ff1690565b34801561047c57600080fd5b5061020561048b366004611715565b610a46565b34801561049c57600080fd5b506102056104ab366004611677565b610c61565b3480156104bc57600080fd5b506102056104cb3660046116ae565b610cd9565b3480156104dc57600080fd5b50600a546104ef90610100900460ff1681565b60405160ff90911681526020016101dc565b61020561050f366004611750565b610db3565b34801561052057600080fd5b506101d260095481565b34801561053657600080fd5b506101d260065481565b34801561054c57600080fd5b5061020561055b3660046116ae565b61103c565b34801561056c57600080fd5b5061020561057b366004611580565b61109e565b34801561058c57600080fd5b5061020561059b366004611580565b611117565b3480156105ac57600080fd5b506102056105bb366004611772565b611175565b6105c86111c7565b6040516001600160a01b038316907f997392d54c294673ab3abd16a213fe114ae63113dc1a2fcb4ea74b9ef1a6d0b990600090a2600480546001600160a01b0319166001600160a01b039390931692909217909155600655565b61062a6111c7565b60405160ff8216907fb554a621526c10d60733fe50a86303217c0ace43509ae1eb0e5bbf784b61a7ed90600090a2600a805460ff191660ff92909216919091179055565b6001600160a01b03821660009081526001602052604081206106909083611221565b90505b92915050565b6106a16111c7565b6106a961122d565b6106b161127d565b565b6000818152600260208181526040808420815160a08101835281548152600182015493810193909352928301546001600160a01b03908116918301919091526003830154606083015260049092015490911660808201819052829182918291906107385760405162461bcd60e51b815260040161072f906117b9565b60405180910390fd5b8060200151935080608001519150806040015194508060600151600014156107635760009250610768565b600192505b509193509193565b60405181907f832a253ad4e9e88f705006a24d9957b8aa1de307a0f9d0a6ad5fd0b0ac81050590600090a2600081815260026020818152604092839020835160a08101855281548152600182015492810192909252918201546001600160a01b039081169382019390935260038201546060820152600490910154909116608082018190526108115760405162461bcd60e51b815260040161072f906117b9565b60808101516001600160a01b031633146108815760405162461bcd60e51b815260206004820152602b60248201527f4e465453746f72653a207472616e73666572206f6620746f6b656e207468617460448201526a1034b9903737ba1037bbb760a91b606482015260840161072f565b6008546001600160a01b03166342842e0e3033856040518463ffffffff1660e01b81526004016108b393929190611795565b600060405180830381600087803b1580156108cd57600080fd5b505af11580156108e1573d6000803e3d6000fd5b5050505061091382600160006108f43390565b6001600160a01b031681526020810191909152604001600020906112d2565b5050600090815260026020819052604082208281556001810183905590810180546001600160a01b0319908116909155600382019290925560040180549091169055565b61095f6111c7565b60405181907e172ddfc5ae88d08b3de01a5a187667c37a5a53989e8c175055cb6c993792a790600090a2600955565b60006001600160a01b0382166109fb5760405162461bcd60e51b815260206004820152602c60248201527f4e465453746f72653a2062616c616e636520717565727920666f72207468652060448201526b7a65726f206164647265737360a01b606482015260840161072f565b6001600160a01b0382166000908152600160205260409020610693906112de565b610a246111c7565b6106b160006112e8565b610a366111c7565b610a3e611338565b6106b1611385565b610a4e611338565b60405184907f522881958b3c4a6fc0840ad3b7fb947b881edc28c004245a62541647422ade9790600090a26001600160a01b03831660009081526003602052604090205460ff16610ae15760405162461bcd60e51b815260206004820152601760248201527f4e6f7420737570706f727465642062617365546f6b656e000000000000000000604482015260640161072f565b600a5460ff1660011415610b25576004546001600160a01b0384811691161415610b0a57506006545b6005546001600160a01b0384811691161415610b2557506007545b60006040518060a00160405280868152602001838152602001856001600160a01b03168152602001848152602001610b5a3390565b6001600160a01b03908116909152600854604051632142170760e11b815292935016906342842e0e90610b9590339030908a90600401611795565b600060405180830381600087803b158015610baf57600080fd5b505af1158015610bc3573d6000803e3d6000fd5b50505050610bf58560016000610bd63390565b6001600160a01b031681526020810191909152604001600020906113c8565b50600094855260026020818152604096879020835181559083015160018201559582015190860180546001600160a01b03199081166001600160a01b03938416179091556060830151600388015560809092015160049096018054909216951694909417909355505050565b610c696111c7565b816001600160a01b03167f07f3eda3f714379eddf0620b56429f8b62650079725dbe416faffbab8c6204e182604051610ca6911515815260200190565b60405180910390a26001600160a01b03919091166000908152600360205260409020805460ff1916911515919091179055565b610ce16111c7565b6000818152600260205260409020600401546001600160a01b031615610d495760405162461bcd60e51b815260206004820152601860248201527f4e465453746f72653a746f6b656e206973206c6f636b65640000000000000000604482015260640161072f565b600854604051632142170760e11b81526001600160a01b03909116906342842e0e90610d7d90309086908690600401611795565b600060405180830381600087803b158015610d9757600080fd5b505af1158015610dab573d6000803e3d6000fd5b505050505050565b610dbb611338565b60405182907f3e32821836f4caf5b64b2c8c6b460049a9797526960d31502f7575b8da39d5ae90600090a2600082815260026020818152604092839020835160a08101855281548152600182015492810192909252918201546001600160a01b03908116938201939093526003820154606082015260049091015490911660808201819052610e5c5760405162461bcd60e51b815260040161072f906117b9565b81816060015114610eaf5760405162461bcd60e51b815260206004820152601e60248201527f4e465453746f72653a2067696674436f6465206e6f7420636f72726563740000604482015260640161072f565b60408101516020820151600954600090610ed790606490610ed19085906113d4565b906113e0565b90506001600160a01b0383166323b872dd336080870151610ef886866113ec565b6040518463ffffffff1660e01b8152600401610f1693929190611795565b602060405180830381600087803b158015610f3057600080fd5b505af1158015610f44573d6000803e3d6000fd5b505050506040513d601f19601f82011682018060405250810190610f6891906116d8565b506008546001600160a01b03166342842e0e3033896040518463ffffffff1660e01b8152600401610f9b93929190611795565b600060405180830381600087803b158015610fb557600080fd5b505af1158015610fc9573d6000803e3d6000fd5b50505060808501516001600160a01b03166000908152600160205260409020610ff39150876112d2565b5050506000938452505060026020819052604083208381556001810184905590810180546001600160a01b03199081169091556003820193909355600401805490921690915550565b6110446111c7565b6040516001600160a01b038316907fac51e58994294b5c6228632094d5572744a1ca0dae188382054de04611f0728b90600090a2600580546001600160a01b0319166001600160a01b039390931692909217909155600755565b6110a66111c7565b6001600160a01b03811661110b5760405162461bcd60e51b815260206004820152602660248201527f4f776e61626c653a206e6577206f776e657220697320746865207a65726f206160448201526564647265737360d01b606482015260840161072f565b611114816112e8565b50565b61111f6111c7565b6040516001600160a01b038216907ff8525b9383ba5cc1b196c9a879bcbe7911913876aaff159ec424e1bb6136fff290600090a2600880546001600160a01b0319166001600160a01b0392909216919091179055565b61117d6111c7565b60405160ff8216907f19ece111cb85047eb6a743a8f6f2a7ea1247426ab78412ac8e3ba26c5aa585eb90600090a2600a805460ff9092166101000261ff0019909216919091179055565b6000546001600160a01b031633146106b15760405162461bcd60e51b815260206004820181905260248201527f4f776e61626c653a2063616c6c6572206973206e6f7420746865206f776e6572604482015260640161072f565b600061069083836113f8565b600054600160a01b900460ff166106b15760405162461bcd60e51b815260206004820152601460248201527314185d5cd8589b194e881b9bdd081c185d5cd95960621b604482015260640161072f565b61128561122d565b6000805460ff60a01b191690557f5db9ee0a495bf2e6ff9c91a7834c1ba4fdd244a5e8aa4e537bd38aeae4b073aa335b6040516001600160a01b03909116815260200160405180910390a1565b60006106908383611422565b6000610693825490565b600080546001600160a01b038381166001600160a01b0319831681178455604051919092169283917f8be0079c531659141344cd1fd0a4f28419497f9722a3daafe3b4186f6b6457e09190a35050565b600054600160a01b900460ff16156106b15760405162461bcd60e51b815260206004820152601060248201526f14185d5cd8589b194e881c185d5cd95960821b604482015260640161072f565b61138d611338565b6000805460ff60a01b1916600160a01b1790557f62e78cea01bee320cd4e420270b5ea74000d11b0c9f74754ebdbfc544b05a2586112b53390565b60006106908383611515565b60006106908284611829565b60006106908284611807565b60006106908284611848565b600082600001828154811061140f5761140f61188b565b9060005260206000200154905092915050565b6000818152600183016020526040812054801561150b576000611446600183611848565b855490915060009061145a90600190611848565b90508181146114bf57600086600001828154811061147a5761147a61188b565b906000526020600020015490508087600001848154811061149d5761149d61188b565b6000918252602080832090910192909255918252600188019052604090208390555b85548690806114d0576114d0611875565b600190038181906000526020600020016000905590558560010160008681526020019081526020016000206000905560019350505050610693565b6000915050610693565b600081815260018301602052604081205461155c57508154600181810184556000848152602080822090930184905584548482528286019093526040902091909155610693565b506000610693565b80356001600160a01b038116811461157b57600080fd5b919050565b60006020828403121561159257600080fd5b61069082611564565b600080600080608085870312156115b157600080fd5b6115ba85611564565b93506115c860208601611564565b925060408501359150606085013567ffffffffffffffff808211156115ec57600080fd5b818701915087601f83011261160057600080fd5b813581811115611612576116126118a1565b604051601f8201601f19908116603f0116810190838211818310171561163a5761163a6118a1565b816040528281528a602084870101111561165357600080fd5b82602086016020830137600060208483010152809550505050505092959194509250565b6000806040838503121561168a57600080fd5b61169383611564565b915060208301356116a3816118b7565b809150509250929050565b600080604083850312156116c157600080fd5b6116ca83611564565b946020939093013593505050565b6000602082840312156116ea57600080fd5b81516116f5816118b7565b9392505050565b60006020828403121561170e57600080fd5b5035919050565b6000806000806080858703121561172b57600080fd5b8435935061173b60208601611564565b93969395505050506040820135916060013590565b6000806040838503121561176357600080fd5b50508035926020909101359150565b60006020828403121561178457600080fd5b813560ff811681146116f557600080fd5b6001600160a01b039384168152919092166020820152604081019190915260600190565b6020808252602e908201527f4e465453746f72653a206f70657261746f7220717565727920666f72206e6f6e60408201526d32bc34b9ba32b73a103a37b5b2b760911b606082015260800190565b60008261182457634e487b7160e01b600052601260045260246000fd5b500490565b60008160001904831182151516156118435761184361185f565b500290565b60008282101561185a5761185a61185f565b500390565b634e487b7160e01b600052601160045260246000fd5b634e487b7160e01b600052603160045260246000fd5b634e487b7160e01b600052603260045260246000fd5b634e487b7160e01b600052604160045260246000fd5b801515811461111457600080fdfea26469706673582212206d202a538b8f45963082e2ad744c1941ebf9f2cfd74cd9916c73c44294e8ac4864736f6c63430008060033",
  "linkReferences": {},
  "deployedLinkReferences": {}
}