{
  "_format": "hh-sol-artifact-1",
  "contractName": "Vpool",
  "sourceName": "contracts/Vpool.sol",
  "abi": [
    {
      "inputs": [
        {
          "internalType": "uint256",
          "name": "maxAnchor",
          "type": "uint256"
        },
        {
          "internalType": "address",
          "name": "anchor",
          "type": "address"
        },
        {
          "internalType": "address",
          "name": "token",
          "type": "address"
        }
      ],
      "stateMutability": "nonpayable",
      "type": "constructor"
    },
    {
      "anonymous": false,
      "inputs": [
        {
          "indexed": true,
          "internalType": "address",
          "name": "previousOwner",
          "type": "address"
        },
        {
          "indexed": true,
          "internalType": "address",
          "name": "newOwner",
          "type": "address"
        }
      ],
      "name": "OwnershipTransferred",
      "type": "event"
    },
    {
      "anonymous": false,
      "inputs": [
        {
          "indexed": false,
          "internalType": "address",
          "name": "msgsender",
          "type": "address"
        },
        {
          "indexed": false,
          "internalType": "uint256",
          "name": "amount",
          "type": "uint256"
        }
      ],
      "name": "e_depositAnchor",
      "type": "event"
    },
    {
      "anonymous": false,
      "inputs": [
        {
          "indexed": false,
          "internalType": "uint256",
          "name": "amount",
          "type": "uint256"
        }
      ],
      "name": "e_insertToken",
      "type": "event"
    },
    {
      "anonymous": false,
      "inputs": [
        {
          "indexed": false,
          "internalType": "uint256",
          "name": "amount",
          "type": "uint256"
        }
      ],
      "name": "e_withdraw",
      "type": "event"
    },
    {
      "inputs": [
        {
          "internalType": "uint256",
          "name": "amount",
          "type": "uint256"
        }
      ],
      "name": "depositAnchor",
      "outputs": [
        {
          "internalType": "bool",
          "name": "",
          "type": "bool"
        }
      ],
      "stateMutability": "nonpayable",
      "type": "function"
    },
    {
      "inputs": [],
      "name": "getCurLevel",
      "outputs": [
        {
          "internalType": "uint256",
          "name": "",
          "type": "uint256"
        }
      ],
      "stateMutability": "view",
      "type": "function"
    },
    {
      "inputs": [],
      "name": "getLeftToken",
      "outputs": [
        {
          "internalType": "uint256",
          "name": "",
          "type": "uint256"
        }
      ],
      "stateMutability": "view",
      "type": "function"
    },
    {
      "inputs": [
        {
          "internalType": "uint256",
          "name": "totalToken",
          "type": "uint256"
        }
      ],
      "name": "getLevelByTotalToken",
      "outputs": [
        {
          "internalType": "uint256",
          "name": "",
          "type": "uint256"
        }
      ],
      "stateMutability": "view",
      "type": "function"
    },
    {
      "inputs": [],
      "name": "getMaxAnchor",
      "outputs": [
        {
          "internalType": "uint256",
          "name": "",
          "type": "uint256"
        }
      ],
      "stateMutability": "view",
      "type": "function"
    },
    {
      "inputs": [
        {
          "internalType": "uint256",
          "name": "levels",
          "type": "uint256"
        }
      ],
      "name": "getTokenByFullLevel",
      "outputs": [
        {
          "internalType": "uint256",
          "name": "",
          "type": "uint256"
        }
      ],
      "stateMutability": "view",
      "type": "function"
    },
    {
      "inputs": [],
      "name": "getTotalToken",
      "outputs": [
        {
          "internalType": "uint256",
          "name": "",
          "type": "uint256"
        }
      ],
      "stateMutability": "view",
      "type": "function"
    },
    {
      "inputs": [
        {
          "internalType": "uint256",
          "name": "amount",
          "type": "uint256"
        }
      ],
      "name": "insertToken",
      "outputs": [
        {
          "internalType": "bool",
          "name": "",
          "type": "bool"
        }
      ],
      "stateMutability": "nonpayable",
      "type": "function"
    },
    {
      "inputs": [],
      "name": "owner",
      "outputs": [
        {
          "internalType": "address",
          "name": "",
          "type": "address"
        }
      ],
      "stateMutability": "view",
      "type": "function"
    },
    {
      "inputs": [],
      "name": "renounceOwnership",
      "outputs": [],
      "stateMutability": "nonpayable",
      "type": "function"
    },
    {
      "inputs": [
        {
          "internalType": "address",
          "name": "newOwner",
          "type": "address"
        }
      ],
      "name": "transferOwnership",
      "outputs": [],
      "stateMutability": "nonpayable",
      "type": "function"
    },
    {
      "inputs": [
        {
          "internalType": "uint256",
          "name": "amount",
          "type": "uint256"
        }
      ],
      "name": "withdraw",
      "outputs": [
        {
          "internalType": "bool",
          "name": "",
          "type": "bool"
        }
      ],
      "stateMutability": "nonpayable",
      "type": "function"
    }
  ],
  "bytecode": "0x60806040523480156200001157600080fd5b5060405162001c4b38038062001c4b8339818101604052810190620000379190620001fb565b620000576200004b6200010160201b60201c565b6200010960201b60201c565b6000600181905550600060028190555060006003819055508260048190555081600560006101000a81548173ffffffffffffffffffffffffffffffffffffffff021916908373ffffffffffffffffffffffffffffffffffffffff16021790555080600660006101000a81548173ffffffffffffffffffffffffffffffffffffffff021916908373ffffffffffffffffffffffffffffffffffffffff160217905550505050620002c3565b600033905090565b60008060009054906101000a900473ffffffffffffffffffffffffffffffffffffffff169050816000806101000a81548173ffffffffffffffffffffffffffffffffffffffff021916908373ffffffffffffffffffffffffffffffffffffffff1602179055508173ffffffffffffffffffffffffffffffffffffffff168173ffffffffffffffffffffffffffffffffffffffff167f8be0079c531659141344cd1fd0a4f28419497f9722a3daafe3b4186f6b6457e060405160405180910390a35050565b600081519050620001de816200028f565b92915050565b600081519050620001f581620002a9565b92915050565b6000806000606084860312156200021157600080fd5b60006200022186828701620001e4565b93505060206200023486828701620001cd565b92505060406200024786828701620001cd565b9150509250925092565b60006200025e8262000265565b9050919050565b600073ffffffffffffffffffffffffffffffffffffffff82169050919050565b6000819050919050565b6200029a8162000251565b8114620002a657600080fd5b50565b620002b48162000285565b8114620002c057600080fd5b50565b61197880620002d36000396000f3fe608060405234801561001057600080fd5b50600436106100b45760003560e01c80636415b68e116100715780636415b68e146101a3578063715018a6146101d35780637a710f3b146101dd57806385d90653146101fb5780638da5cb5b1461022b578063f2fde38b14610249576100b4565b80632e1a7d4d146100b9578063313235dd146100e95780633829f9ed146101195780633d0673d4146101495780635102f078146101675780635205b80f14610185575b600080fd5b6100d360048036038101906100ce919061135e565b610265565b6040516100e0919061150d565b60405180910390f35b61010360048036038101906100fe919061135e565b6103da565b604051610110919061150d565b60405180910390f35b610133600480360381019061012e919061135e565b610b48565b60405161014091906115a8565b60405180910390f35b610151610b81565b60405161015e91906115a8565b60405180910390f35b61016f610b8b565b60405161017c91906115a8565b60405180910390f35b61018d610b95565b60405161019a91906115a8565b60405180910390f35b6101bd60048036038101906101b8919061135e565b610b9f565b6040516101ca91906115a8565b60405180910390f35b6101db610bff565b005b6101e5610c87565b6040516101f291906115a8565b60405180910390f35b6102156004803603810190610210919061135e565b610c91565b604051610222919061150d565b60405180910390f35b610233610f77565b6040516102409190611469565b60405180910390f35b610263600480360381019061025e919061130c565b610fa0565b005b600061026f611098565b73ffffffffffffffffffffffffffffffffffffffff1661028d610f77565b73ffffffffffffffffffffffffffffffffffffffff16146102e3576040517f08c379a00000000000000000000000000000000000000000000000000000000081526004016102da90611568565b60405180910390fd5b600560009054906101000a900473ffffffffffffffffffffffffffffffffffffffff1673ffffffffffffffffffffffffffffffffffffffff1663a9059cbb610329611098565b846040518363ffffffff1660e01b81526004016103479291906114e4565b602060405180830381600087803b15801561036157600080fd5b505af1158015610375573d6000803e3d6000fd5b505050506040513d601f19601f820116820180604052508101906103999190611335565b507f86fc5487ea29d17f0eff3dd4146650445ae4af003f7c9648e617b37d12cc6fde826040516103c991906115a8565b60405180910390a160019050919050565b6000670de0b6b3a7640000826103f0919061162a565b915060008211610435576040517f08c379a000000000000000000000000000000000000000000000000000000000815260040161042c90611528565b60405180910390fd5b670de0b6b3a764000082610449919061165b565b600560009054906101000a900473ffffffffffffffffffffffffffffffffffffffff1673ffffffffffffffffffffffffffffffffffffffff1663dd62ed3e61048f611098565b306040518363ffffffff1660e01b81526004016104ad929190611484565b60206040518083038186803b1580156104c557600080fd5b505afa1580156104d9573d6000803e3d6000fd5b505050506040513d601f19601f820116820180604052508101906104fd9190611387565b101561053e576040517f08c379a000000000000000000000000000000000000000000000000000000000815260040161053590611588565b60405180910390fd5b600560009054906101000a900473ffffffffffffffffffffffffffffffffffffffff1673ffffffffffffffffffffffffffffffffffffffff166323b872dd610584611098565b30670de0b6b3a764000086610599919061165b565b6040518463ffffffff1660e01b81526004016105b7939291906114ad565b602060405180830381600087803b1580156105d157600080fd5b505af11580156105e5573d6000803e3d6000fd5b505050506040513d601f19601f820116820180604052508101906106099190611335565b50600060015460025461061c919061162a565b9050600060015460025461063091906117a4565b11156106455780806106419061175b565b9150505b808310156107615760006001548461065d919061165b565b9050806002600082825461067191906116b5565b92505081905550806003600082825461068a91906116b5565b92505081905550600660009054906101000a900473ffffffffffffffffffffffffffffffffffffffff1673ffffffffffffffffffffffffffffffffffffffff1663a9059cbb6106d7611098565b670de0b6b3a7640000846106eb919061165b565b6040518363ffffffff1660e01b81526004016107089291906114e4565b602060405180830381600087803b15801561072257600080fd5b505af1158015610736573d6000803e3d6000fd5b505050506040513d601f19601f8201168201806040525081019061075a9190611335565b5050610b05565b8083141561088757600060025490506001600081548092919061078390611731565b9190505550600454600154610798919061165b565b60028190555080600360008282546107b091906116b5565b92505081905550600660009054906101000a900473ffffffffffffffffffffffffffffffffffffffff1673ffffffffffffffffffffffffffffffffffffffff1663a9059cbb6107fd611098565b670de0b6b3a764000084610811919061165b565b6040518363ffffffff1660e01b815260040161082e9291906114e4565b602060405180830381600087803b15801561084857600080fd5b505af115801561085c573d6000803e3d6000fd5b505050506040513d601f19601f820116820180604052508101906108809190611335565b5050610b04565b600060035490506000828561089c91906116b5565b90506000600454826108ae919061162a565b90506000600454836108c091906117a4565b90508160016108cf91906115d4565b600154116109be57600060018190555060006002819055506000600381905550600660009054906101000a900473ffffffffffffffffffffffffffffffffffffffff1673ffffffffffffffffffffffffffffffffffffffff1663a9059cbb610935611098565b670de0b6b3a764000087610949919061165b565b6040518363ffffffff1660e01b81526004016109669291906114e4565b602060405180830381600087803b15801561098057600080fd5b505af1158015610994573d6000803e3d6000fd5b505050506040513d601f19601f820116820180604052508101906109b89190611335565b50610aff565b81600180546109cd91906116b5565b6109d791906116b5565b600181905550806004546109eb91906116b5565b6001546109f8919061165b565b600281905550600254610a1760018054610a1291906116b5565b610b48565b610a2191906115d4565b600381905550600660009054906101000a900473ffffffffffffffffffffffffffffffffffffffff1673ffffffffffffffffffffffffffffffffffffffff1663a9059cbb610a6d611098565b670de0b6b3a764000060035488610a8491906116b5565b610a8e919061165b565b6040518363ffffffff1660e01b8152600401610aab9291906114e4565b602060405180830381600087803b158015610ac557600080fd5b505af1158015610ad9573d6000803e3d6000fd5b505050506040513d601f19601f82011682018060405250810190610afd9190611335565b505b505050505b5b7f1b63948b778c7bb58d58f95a87c335e1561e7a30c82268aaa51ec635ae8716733384604051610b369291906114e4565b60405180910390a16001915050919050565b600060026004548384610b5b919061165b565b84610b6691906115d4565b610b70919061165b565b610b7a919061162a565b9050919050565b6000600354905090565b6000600154905090565b6000600254905090565b600080600454836002610bb2919061165b565b610bbc919061162a565b905060026001610be36001846004610bd4919061165b565b610bde91906115d4565b6110a0565b610bed91906116b5565b610bf7919061162a565b915050919050565b610c07611098565b73ffffffffffffffffffffffffffffffffffffffff16610c25610f77565b73ffffffffffffffffffffffffffffffffffffffff1614610c7b576040517f08c379a0000000000000000000000000000000000000000000000000000000008152600401610c7290611568565b60405180910390fd5b610c8560006111f4565b565b6000600454905090565b6000670de0b6b3a764000082610ca7919061162a565b915060008211610cec576040517f08c379a0000000000000000000000000000000000000000000000000000000008152600401610ce390611528565b60405180910390fd5b670de0b6b3a764000082610d00919061165b565b600660009054906101000a900473ffffffffffffffffffffffffffffffffffffffff1673ffffffffffffffffffffffffffffffffffffffff1663dd62ed3e610d46611098565b306040518363ffffffff1660e01b8152600401610d64929190611484565b60206040518083038186803b158015610d7c57600080fd5b505afa158015610d90573d6000803e3d6000fd5b505050506040513d601f19601f82011682018060405250810190610db49190611387565b1015610df5576040517f08c379a0000000000000000000000000000000000000000000000000000000008152600401610dec90611588565b60405180910390fd5b600660009054906101000a900473ffffffffffffffffffffffffffffffffffffffff1673ffffffffffffffffffffffffffffffffffffffff166323b872dd610e3b611098565b30670de0b6b3a764000086610e50919061165b565b6040518463ffffffff1660e01b8152600401610e6e939291906114ad565b602060405180830381600087803b158015610e8857600080fd5b505af1158015610e9c573d6000803e3d6000fd5b505050506040513d601f19601f82011682018060405250810190610ec09190611335565b508160036000828254610ed391906115d4565b925050819055506000610ee7600354610b9f565b90506000610ef482610b48565b905080600354610f0491906116b5565b60028190555060006002541415610f215781600181905550610f35565b600182610f2e91906115d4565b6001819055505b7fdfd5c2d4e88d41ac5c4ecc7a0a0842785c78b5103306f8e4fe9f59ede4b03c3d84604051610f6491906115a8565b60405180910390a1600192505050919050565b60008060009054906101000a900473ffffffffffffffffffffffffffffffffffffffff16905090565b610fa8611098565b73ffffffffffffffffffffffffffffffffffffffff16610fc6610f77565b73ffffffffffffffffffffffffffffffffffffffff161461101c576040517f08c379a000000000000000000000000000000000000000000000000000000000815260040161101390611568565b60405180910390fd5b600073ffffffffffffffffffffffffffffffffffffffff168173ffffffffffffffffffffffffffffffffffffffff16141561108c576040517f08c379a000000000000000000000000000000000000000000000000000000000815260040161108390611548565b60405180910390fd5b611095816111f4565b50565b600033905090565b6000808211156111ea5760006001600284816110e5577f4e487b7100000000000000000000000000000000000000000000000000000000600052601260045260246000fd5b0401905060006002828581611123577f4e487b7100000000000000000000000000000000000000000000000000000000600052601260045260246000fd5b0483018161115a577f4e487b7100000000000000000000000000000000000000000000000000000000600052601260045260246000fd5b0490505b808211156111e05780915060028285816111a1577f4e487b7100000000000000000000000000000000000000000000000000000000600052601260045260246000fd5b048301816111d8577f4e487b7100000000000000000000000000000000000000000000000000000000600052601260045260246000fd5b04905061115e565b81925050506111ef565b600090505b919050565b60008060009054906101000a900473ffffffffffffffffffffffffffffffffffffffff169050816000806101000a81548173ffffffffffffffffffffffffffffffffffffffff021916908373ffffffffffffffffffffffffffffffffffffffff1602179055508173ffffffffffffffffffffffffffffffffffffffff168173ffffffffffffffffffffffffffffffffffffffff167f8be0079c531659141344cd1fd0a4f28419497f9722a3daafe3b4186f6b6457e060405160405180910390a35050565b6000813590506112c7816118fd565b92915050565b6000815190506112dc81611914565b92915050565b6000813590506112f18161192b565b92915050565b6000815190506113068161192b565b92915050565b60006020828403121561131e57600080fd5b600061132c848285016112b8565b91505092915050565b60006020828403121561134757600080fd5b6000611355848285016112cd565b91505092915050565b60006020828403121561137057600080fd5b600061137e848285016112e2565b91505092915050565b60006020828403121561139957600080fd5b60006113a7848285016112f7565b91505092915050565b6113b9816116e9565b82525050565b6113c8816116fb565b82525050565b60006113db601a836115c3565b91506113e682611833565b602082019050919050565b60006113fe6026836115c3565b91506114098261185c565b604082019050919050565b60006114216020836115c3565b915061142c826118ab565b602082019050919050565b6000611444600e836115c3565b915061144f826118d4565b602082019050919050565b61146381611727565b82525050565b600060208201905061147e60008301846113b0565b92915050565b600060408201905061149960008301856113b0565b6114a660208301846113b0565b9392505050565b60006060820190506114c260008301866113b0565b6114cf60208301856113b0565b6114dc604083018461145a565b949350505050565b60006040820190506114f960008301856113b0565b611506602083018461145a565b9392505050565b600060208201905061152260008301846113bf565b92915050565b60006020820190508181036000830152611541816113ce565b9050919050565b60006020820190508181036000830152611561816113f1565b9050919050565b6000602082019050818103600083015261158181611414565b9050919050565b600060208201905081810360008301526115a181611437565b9050919050565b60006020820190506115bd600083018461145a565b92915050565b600082825260208201905092915050565b60006115df82611727565b91506115ea83611727565b9250827fffffffffffffffffffffffffffffffffffffffffffffffffffffffffffffffff0382111561161f5761161e6117d5565b5b828201905092915050565b600061163582611727565b915061164083611727565b9250826116505761164f611804565b5b828204905092915050565b600061166682611727565b915061167183611727565b9250817fffffffffffffffffffffffffffffffffffffffffffffffffffffffffffffffff04831182151516156116aa576116a96117d5565b5b828202905092915050565b60006116c082611727565b91506116cb83611727565b9250828210156116de576116dd6117d5565b5b828203905092915050565b60006116f482611707565b9050919050565b60008115159050919050565b600073ffffffffffffffffffffffffffffffffffffffff82169050919050565b6000819050919050565b600061173c82611727565b915060008214156117505761174f6117d5565b5b600182039050919050565b600061176682611727565b91507fffffffffffffffffffffffffffffffffffffffffffffffffffffffffffffffff821415611799576117986117d5565b5b600182019050919050565b60006117af82611727565b91506117ba83611727565b9250826117ca576117c9611804565b5b828206905092915050565b7f4e487b7100000000000000000000000000000000000000000000000000000000600052601160045260246000fd5b7f4e487b7100000000000000000000000000000000000000000000000000000000600052601260045260246000fd5b7f6861766520746f20696e73657274206d6f7265207468616e2031000000000000600082015250565b7f4f776e61626c653a206e6577206f776e657220697320746865207a65726f206160008201527f6464726573730000000000000000000000000000000000000000000000000000602082015250565b7f4f776e61626c653a2063616c6c6572206973206e6f7420746865206f776e6572600082015250565b7f417070726f766520666972737421000000000000000000000000000000000000600082015250565b611906816116e9565b811461191157600080fd5b50565b61191d816116fb565b811461192857600080fd5b50565b61193481611727565b811461193f57600080fd5b5056fea264697066735822122021abe07f7f1246baef51bb29a5882fb4a84a25d2b86431c35cea41dbf4aa8c2e64736f6c63430008020033",
  "linkReferences": {},
  "deployedLinkReferences": {}
}